:1000000015C0E6C6BDC9BCC9BBC9BAC994C2B8C986
:10001000B7C947C4B5C983C1B3C9B2C9B1C9B0C9A9
:10002000AFC9AEC9ADC9006000D8800011241FBEA1
:10003000CFE5D4E0DEBFCDBFE6E2F0E040E017C0A0
:10004000B591A59135912591059107FD0CC095912C
:100050008591EF01F92FE82F05900D92A217B307B4
:10006000D9F7FE0104C01D92A217B307E1F7EB32E6
:0C007000F40731F7CCD700C0F894FFCFA4
:10007C0000010204081020408001020408102040F6
:10008C008001020408102040800102040810204066
:10009C008001020408102040800102040810204056
:1000AC008001020408102040800102040810204046
:1000BC008001020408102040800102040810204036
:1000CC008001020408102040800102040810204026
:0100DC0080A3
:1000DD000000000000000000000202020202020205
:1000ED0002030303030303030004040404040404D0
:1000FD0004000000000000000000000000000000EF
:10010D0000000000000000000000000000000000E2
:10011D0000000000000000000000000000000000D2
:10012D0000000000000000000000000000000000C2
:01013D0000C1
:10013E000000000038003500320000000000000012
:0A014E0000000000000000000000A7
:1001580000000000370034003100000000000000FB
:0A016800000000000000000000008D
:1001720000000000360033003000000000000000E4
:0A0182000000000000000000000073
:10018C00B4D8882391F080917000882379F0813065
:10019C0009F46CC0853009F442C0873009F488C07A
:1001AC00833009F494C0823031F1089580E790E0F7
:1001BC00E2D787E690E01FD58823B9F380917000D1
:1001CC008111F3CF85E08093700080E293E0A0E092
:1001DC00B0E080936B0090936C00A0936D00B09393
:1001EC006E0006D860936700709368008093690076
:1001FC0090936A00089590916F0095FF56C091E01E
:10020C00909370009093A4008093A5008093A60017
:10021C0080916F0086FD7AC01092A70011C091E00A
:10022C00909370009093A4008093A5008093A600F7
:10023C001092A7001092A8001092A9001092AA0088
:10024C0088E290E0A0E0B0E080936B0090936C00AB
:10025C00A0936D00B0936E00CBD760936700709342
:10026C0068008093690090936A003CC787E690E031
:10027C00C2D4882309F499CFE1D780E293E0A0E0BF
:10028C00B0E080936B0090936C00A0936D00B093E2
:10029C006E00AED76093670070936800809369001E
:1002AC0090936A0010927000089510927000089557
:1002BC0091E0909370009093A40092E09093A5002D
:1002CC008093A60080917B008093A700B9CF91E02A
:1002DC009093A40026E02093A5008093A600809123
:1002EC0078008093A700809178008093A80080917B
:1002FC0079008093A90080917A008093AA00809164
:10030C007B008093AB00909370009ACF9093A700E2
:02031C0097CF79
:10031E001F920F920FB60F9211242F933F934F936C
:10032E005F936F937F938F939F93AF93BF93EF934F
:10033E00FF938091CD008B3008F069C0E091CD0025
:10034E00F0E08CB1E155FF4F80838091BA0085FFBC
:10035E0056C0E091CD00F0E0E155FF4F9081E09165
:10036E00AE00F0E0E154FF4F8081981769F0809164
:10037E00A300865A8093A3001092AE008091BA001B
:10038E008F7D8093BA003BC02091AE0030E080910B
:10039E00C00090E0019728173907A4F48091AE00B1
:1003AE008F5F8093AE00E091AE00F0E0E154FF4F1E
:1003BE0080818CB924C0E82FF0E0E155FF4F108208
:1003CE008F5F01C080E08B30B0F380E006C0E82F75
:1003DE00F0E0E154FF4F10828F5F8B30C0F310922C
:1003EE00AE001092A3001092CD008091BA008F77CC
:1003FE008093BA008091BA008F7D8093BA0080916D
:10040E00CD008F5F8093CD008AE590E04CD7FF91B1
:10041E00EF91BF91AF919F918F917F916F915F916E
:10042E004F913F912F910F900FBE0F901F901895E7
:10043E00CF93DF93662309F474C0C42FD82F862F71
:10044E0069D48C1324C02D2F30E0F901EF56FF4FE5
:10045E0080818F5F8083853638F0F901EF56FF4F2C
:10046E0084E68083C0E030C0843631F421E02D0F65
:10047E002F73C22FC06428C0813019F58D0FC82F7D
:10048E00CF7380938F0082E3809390001DC08D2FD9
:10049E0090E0FC01EF56FF4F20812223A1F0FC01DA
:1004AE00EF56FF4F108221E02D0FC22FC06C20910E
:1004BE008F0030E001962817390731F410928F0023
:1004CE0003C0C0E001C0C0E0CC2359F16C2F85E819
:1004DE0090E054D5882399F02C2F30E08D2F90E0AA
:1004EE0001968F73992728173907D9F420E030E049
:1004FE00A90164E670E080E090E05BD212C02C2F80
:10050E0030E08D2F90E001968F73992728173907C9
:10051E0041F420E030E0A90168EC70E080E090E06A
:08052E0048D2DF91CF9108953E
:100536001F920F920FB60F9211242F933F934F9352
:100546005F936F937F938F939F93AF93BF93EF9335
:10055600FF93DDD68091BA008370A9F4E9D1882390
:1005660029F08091BA0080618093BA0080E006C0CD
:10057600E82FF0E0E155FF4F10828F5F8B30C0F31C
:100586001092CD002AC08091BA0083708230A1F407
:100596008091BA0088230CF52091A3008091BD00BC
:1005A6009091BE00820F911D82D68091BA008C7FF9
:1005B60081608093BA0011C08091BA008370813047
:1005C60061F41092CD005D9BFECF8091BF008CB987
:1005D6008091BA0080628093BA00FF91EF91BF913B
:1005E600AF919F918F917F916F915F914F913F91C5
:0C05F6002F910F900FBE0F901F901895D2
:10060200A0E0B0E0E6E0F3E02BC5962F082F10E063
:1006120020E0622FA80143525F4F6F4FFA014491CD
:1006220004581F4F2F4FF8010491442309F440C08E
:10063200242F30E0F901EE0FFF1F9F01FF0F440B43
:10064200842FB901685A7E4F8F4F6B01E82EF12C2F
:10065200FB01A591B491225C3E4F4F4F642FA9013B
:10066200FA01C591D491933039F48881802B888323
:100672008C91082B0C931CC0923049F48881902FE6
:100682009095892388838C91082B0C9311C091300B
:1006920041F48881802B88838C91009508230C93E8
:1006A20007C088810095802388838C9108230C934E
:0806B200CDB7DEB7E8E0F0C4AB
:1006BA00809160008F3F09F180916000813009F4D8
:1006CA0043C0E0F0823051F18430A1F461E083E16B
:1006DA0050D360E084E14DD360E085E14AD3FED592
:1006EA00811137C080916100811104C081E080933B
:1006FA00610018D68FEF80936000089560E083E16F
:10070A0038D360E084E135D361E085E132D31092D9
:10071A0061000ED68FEF80936000EFCF60E083E137
:10072A0028D361E084E125D360E085E122D3D6D5E0
:10073A008823C1F228EE33E040E050E064E670E03E
:10074A0080E090E038D1CECF61E083E112D361E05E
:10075A00D9CF24E630E040E050E062E370E080E088
:06076A0090E029D1BFCF91
:10077000CF93DF9380919900882309F443C080913F
:1007800099008130A9F58AE990E03BD28823D1F124
:1007900020919500309196004091970050919800DB
:1007A000211531054105510599F0A8EEB3E06FD54B
:1007B000623E24E072078105910530F022EE34E0BC
:1007C00040E050E0C0D304C021E030E040E050E021
:1007D000CAE9D0E02C833D834E835F830FD56883C5
:1007E00079838A839B8382E080939900BAD50AC07B
:1007F00080919900823031F48AE990E002D281112F
:0A08000010929900DF91CF91089546
:10080A008091D000823819F1982F9D7F943821F079
:10081A00853849F080E0089569D581111EC080911C
:10082A00D0008538B9F780916F0086FF0DC081E04E
:10083A0080937B0060917B0088E090E06CD4FFD4C9
:10084A001092700081E0089510927B00F3CFE3D2FA
:10085A0081110BC08091D000D7CF81E88093A4008A
:10086A001092A50040D41092700080E293E0A0E0BC
:10087A00B0E080936B0090936C00A0936D00B093EE
:10088A006E00B7D460936700709368008093690024
:08089A0090936A0081E00895CB
:1008A2001F920F920FB60F9211242F933F934F93E3
:1008B2005F936F937F938F939F93AF93BF93EF93C6
:1008C200FF938091810090918200A0918300B0916A
:1008D20084000196A11DB11D809381009093820036
:1008E200A0938300B0938400809180008F7009F4FC
:1008F200BCD280918000877009F442D5809180003B
:100902008F5F80938000803111F41092800088E222
:1009120082BFFF91EF91BF91AF919F918F917F9194
:100922006F915F914F913F912F910F900FBE0F905A
:040932001F90189565
:10093600CF938091CD00813099F18091CD008330A5
:1009460088F18091BA0088237CF42091A3008091DD
:10095600BD009091BE00820F911DA9D48091BA006E
:100966008C7F81608093BA008091AF008138E1F07E
:100976008038E1F08091CD008C30D0F46091B000E9
:10098600E62FF0E0E255FF4FC08161508FEA90E01C
:100996003FD4C8130FC08EEC90E08DD381E00BC01E
:1009A60080E009C080E007C080E005C080E003C0A9
:0A09B60080E001C080E0CF910895B9
:1009C000CF92DF92EF92FF92CF93DF9369017A018A
:1009D000611571058105910589F0A8EEB3E09B01D1
:1009E000AC0155D4623E24E072078105910550F0B8
:1009F00022EE34E040E050E0A6D208C020E030E033
:100A0000A90104C021E030E040E050E0CAE9D0E0B4
:100A10002C833D834E835F83F1D3688379838A83FC
:100A20009B8381E080939900C0929500D0929600BC
:100A3000E0929700F092980090D4DF91CF91FF90D0
:080A4000EF90DF90CF900895C4
:100A4800CF93DF93C0E0D0E0CE01C6D3FE01E958D2
:100A5800FF4F80832196C430D105B1F7809177008C
:100A6800811104C0809178008823A1F095D084E694
:100A780095E065D485E094E067D41092700045E075
:100A880062E670E081E790E01AD410926F00DF917F
:100A9800CF9163C3809179008111E8CF80917A006A
:100AA8008111E4CFC0E0D0E0CE01049695D3FE01D9
:100AB800E958FF4F80832196C930D105A9F7D7CFD0
:100AC80080E293E0A0E0B0E080936B0090936C002C
:100AD800A0936D00B0936E008DD360936700709300
:100AE80068008093690090936A008091D0008230FA
:100AF80011F081E008956091D40088E090E00CD373
:100B08008091D40080937B0081E08093A40083E0EF
:100B18008093A50081E88093A6008091CE00809301
:100B2800A70080917B008093A800DED281E0089521
:100B380028E6829FC00111249C01205F3B4F40E0C2
:100B480050E060E472E48FE090E0F9D12F5F3F4F0E
:100B5800C901A0E0B0E0880F991FAA1FBB1F880F2A
:100B6800991FAA1FBB1F880F991FAA1FBB1F880F99
:100B7800991FAA1FBB1F9C01AD01220F331F441FE1
:100B8800551F220F331F441F551F60E070EC88EA81
:080B980090E0D5D1C9010895D8
:100BA000CF93DF93C0E0D0E060E0CE01B9D22196D0
:100BB000C430D105C9F786E68093770085E6809337
:100BC000780082E08093790081E080937A0010922F
:100BD0007B0010927C0010927D0010927E0010929B
:100BE0007F00C0E0D0E0FE01E958FF4F6081CE01F8
:100BF000049696D22196C930D105A9F7DF91CF91FD
:020C0000089555
:100C0200CF92DF92EF92FF920F931F93FC01C48069
:100C1200D580E680F780FF20C4F080819181A28197
:100C2200B381C80ED91EEA1EFB1EE7D297018601C8
:100C3200062717272827392733234CF06C157D0503
:100C42008E059F0530F480E005C080E003C080E09F
:100C520001C081E01F910F91FF90EF90DF90CF9044
:020C62000895F3
:100C6400CF93DF93FC012181822F90E002960C97B1
:100C740024F58081AFEBB0E08C932D5F11962C931B
:100C840090E00CC0292F30E0DF01A20FB31F1296B1
:100C94008C91D901AF53BF4F8C939F5F818198177B
:100CA40088F36091C000C62FD0E0219761508FEB8C
:100CB40090E0AFD2C154DF4F8883DF91CF91089584
:100CC40085B78D7F85BF85B7816085BF8BB780640D
:100CD4008BBF1092BA001092CD001092AE00109209
:100CE400A3001092CA0080E006C0E82FF0E0E154AF
:100CF400FF4F10828F5F8B30C0F380E006C0E82F77
:100D0400F0E0E155FF4F10828F5F8B30C0F380918C
:0E0D1400CA0010DF9093BE008093BD000895CA
:100D220090E09C01092E000C440B23523F4F4F4F81
:100D3200642FA901FA0144914423E9F0092E000C21
:100D4200AA0B84589F4FAF4FFC012491842F90E04F
:100D5200FC01EE0FFF1FCF01FF0FAA0B8E589E4F13
:100D6200AF4FFC01A591B4918C91822391E009F4DB
:0A0D720090E0892F089580E00895B5
:100D7C00262F90E0A0E0AC016A2F43525F4F6F4FDB
:100D8C00FA01349184589F4FAF4FFC018491432F4B
:100D9C0050E0FA01EE0FFF1FAF01FF0F660B425C34
:100DAC005E4F6F4FFA01A591B491332351F021306E
:100DBC0021F49C91892B8C9308959C918095892387
:040DCC008C93089567
:100DD0001F920F920FB60F9211242F933F934F93B0
:100DE0005F936F937F938F939F93AF93BF93EF9393
:100DF000FF9390D28091BA008C7F8093BA00FF91CC
:100E0000EF91BF91AF919F918F917F916F915F9182
:100E10004F913F912F910F900FBE0F901F901895FB
:100E200090917A008091D100981310C090917B002E
:100E30008091D200981731F087E083D11092700032
:100E400081E0089558D2811107C0089583E079D1D7
:100E50001092700081E0089581E88093A4001092C0
:0C0E6000A50046D11092700081E00895BA
:100E6C0040E06CE180E0E5DA40E06DE181E0E1DA60
:100E7C0040E06EE182E0DDDA40E06FE183E0D9DA58
:100E8C0080918F00882389F080919000815080930D
:100E9C00900081110AC08AE08093900060918F00CD
:0C0EAC006F73606885E890E06AD00895DC
:100EB8000F931F93CF93DF93EC018B0108D281111D
:100EC80014C0EC81FD818981E80FF11D8081F80152
:100ED800808389818F5F89839A8191509A839B81CE
:100EE800891305C0198281E003C080E001C081E058
:0A0EF800DF91CF911F910F91089533
:100F02008091BA0084FF1DC08091D00088236CF4C8
:100F1200E091CB00F091CC000995882391F080916B
:100F2200BA008F7E8093BA000895E091BB00F091E1
:100F3200BC000995882329F08091BA008F7E8093A6
:040F4200BA00089554
:100F4600A1E21A2EAA1BBB1BFD010DC0AA1FBB1FC7
:100F5600EE1FFF1FA217B307E407F50720F0A21B39
:100F6600B30BE40BF50B661F771F881F991F1A94A6
:100F760069F760957095809590959B01AC01BD01D0
:040F8600CF010895FA
:100F8A001F93CF93DF93EC01162F86D1811112C0E4
:100F9A00EC81FD818881E80FF11D108388818F5FC4
:100FAA0088839A819F5F9A839B81891305C01882DF
:100FBA0081E003C080E001C081E0DF91CF911F9101
:020FCA00089588
:100FCC0080E006C0E82FF0E0EF56FF4F10828F5FF5
:100FDC008430C0F344E06BE870E085E890E06DD1BC
:100FEC0010928F001092900061E08CE104DB61E0C4
:100FFC008DE101DB61E08EE1FEDA61E08FE1FBDA8D
:02100C00089545
:10100E0010D183B7836083BF88E282BF2ED110BC1C
:10101E0083E289B98AB188618AB980B5866880BD54
:10102E008AB180688AB947DE46DEC9DF65D196D1BE
:10103E0089B7816089BF78949AD193DBBBD0FCCFFE
:10104E002F923F924F925F926F927F928F929F92CA
:10105E00AF92BF92CF92DF92EF92FF920F931F93B8
:10106E00CF93DF93CDB7DEB7CA1BDB0B0FB6F89469
:08107E00DEBF0FBECDBF0994D7
:101086002A88398848885F846E847D848C849B8412
:10109600AA84B984C884DF80EE80FD800C811B8120
:1010A600AA81B981CE0FD11D0FB6F894DEBF0FBE4F
:0610B600CDBFED0108951D
:1010BC00DC01EFEAF0E080818C9351815350119662
:1010CC005C93119790E00BC0292F30E0F901EF549D
:1010DC00FF4F4081FD01E20FF31F42839F5F951785
:0410EC0098F30895D8
:1010F00084EA90E0B7DD2091A3008091BD0090913B
:10110000BE00820F911DD6D08091BA008068809376
:10111000BA008091BA008C7F81608093BA000895F4
:101120009C01E199FECF9FB7F8943FBB2EBB6DBBEE
:101130008CB384608CBB8CB382608CBB9FBF789473
:02114000089510
:10114200CF93CFB7F894682F81E790E01DDF982FF7
:10115200CFBF789481E0911101C080E0CF910895D2
:101162008AE0DEDD882331F080916F008064809315
:101172006F00089580916F008F7B80936F000895B8
:10118200CF93CFB7F894BC0181E790E094DE982F1B
:10119200CFBF789481E0911101C080E0CF91089592
:1011A200A1E0B0E0E6EDF8E061CFBE016F5F7F4FF6
:1011B20085E890E080DE811189812196E2E072CF9C
:1011C200CF93CFB7F894D6D080936000CFBF7894F6
:0E11D20073DACDD0811101C0A3D0CF91D6C762
:1011E0009C01E199FECF9FB7F8943FBB2EBB8CB317
:0C11F00081608CBB8DB39FBF7894089584
:1011FC002FB7F894609181007091820080918300E8
:0A120C00909184002FBF789408959C
:10121600AC0190E080E006C0FA01E90FF11D2081E3
:0A12260082279F5F9617C0F308951A
:1012300062E084E1E6D963E085E1E3D962E083E13D
:08124000E0D961E08AE0DDC99C
:1012480056D0811101C0089581E88093A4001092BE
:08125800A5004ADF81E00895C2
:10126000A29FB001B39FC001A39F01D0B29F700D98
:08127000811D1124911D089558
:1012780010928100109282001092830010928400D4
:06128800109280000895A1
:10128E00E8DFA59F900DB49F900DA49F800D911D3A
:04129E00112408957A
:1012A200FC0122818381281302C081E0089580E03D
:0212B20008959D
:1012B4002BE02EBD1FBC9BBD8ABD89B7806189BF51
:0212C40008958B
:1012C600FC01758364834383128210821182089520
:1012D600FC018281811102C081E0089580E00895B9
:1012E60080919900811102C081E0089580E00895FF
:1012F6008091BA00882314F081E0089580E0089573
:0E13060062E086E17BD92AD01092990008950A
:0E1314001EBC1DBC1CBC89B78F7E89BF08950E
:0C1322003FDF843009F0089582E00ACF1C
:0C132E0080916F00806280936F00089532
:0C133A0080916F008F7D80936F000895FC
:0A1346009093BC008093BB00089553
:0A1350009093CC008093CB00089529
:08135A0061E086E10EDD08955B
:0813620060E086E10ADD089558
:06136A00109260006CCB44
:0613700080917000089559
:0613760080917B00089548
:04137C00C2DD089531
:021380003FC666
:021382000895CC
:00000001FF
