:100000000C9437000C94C40E0C94C40E0C94C40EC3
:100010000C94C40E0C94BC0D0C94C40E0C94C40E21
:100020000C94C40E0C94C40E0C94C40E0C9488074B
:100030000C94C40E0C94C40E0C94370B0C94C40E88
:100040000C94C40E0C94C40E0C94F4060C94C40EC0
:100050000C94C40E0C94C40E0C94C40E0C94C40ED8
:100060000C94C40E0C94C40E010003938000112460
:100070001FBECFEFD8E0DEBFCDBFE8E6F0E040E046
:1000800017C0B591A59135912591059107FD0CC03B
:1000900095918591EF01F92FE82F05900D92A21708
:1000A000B307D9F7FE0104C01D92A217B307E1F709
:1000B000ED36F40731F70E9476080C945F00F8944F
:0200C000FFCF70
:1000C2007E306D79335B5F707F7B771F4E3D4F478C
:1000D2005E1710382F0E76151D6773051B0F3E1C19
:0500E2002B363B49082C
:1000E800CF92DF92EF92FF92CF93809156038630A2
:1000F80009F415C18730D8F1883009F4A9C08830CF
:1001080008F492C11090410315FC04C0689415F8D6
:10011800109241031124893009F0F1C01090410375
:1001280016FC04C0689416F81092410311240E942A
:10013800020C10920A018091080180934A0381E021
:1001480080934B0389E880934C030E94540D81E00F
:100158001090430313FC04C0689413F810924303EF
:100168001124CF91FF90EF90DF90CF9008958330C6
:1001780009F4F6C01090420314FC04C0689414F803
:10018800109242031124853009F0B9C0109042033F
:1001980015FC04C0689415F81092420311240E94BB
:1001A800420E882309F4CCC0CFB7F894E7E5F3E012
:1001B80048EF5FEF2191C0901703D0901803E090AB
:1001C8001903F0901A0330E0C901042E02C0880F09
:1001D800991F0A94E2F7092E000CAA0BBB0B8C2975
:1001E8009D29AE29BF298093170390931803A093E4
:1001F8001903B0931A03485F5F4F48315105D1F690
:100208001090420316FC04C0689416F8109242033A
:1002180011240E94340ECFBF8091080180934A03B5
:1002280085E080934B0382E880934C03809116030A
:1002380080934D038091140380934E03809115039E
:1002480080934F03109250030E94540D81E080CF99
:100258001090420311FC04C0689411F810924203F4
:1002680011240E94420E882309F46AC08091550324
:10027800833030F1C2E01090420312FC04C068944D
:1002880012F81092420311248091570320910A0119
:10029800EC2FF0E0EC5AFC4F30E1839FC0011124B1
:1002A80008966281820F911D0E945B0E80910A015F
:1002B8008F5F80930A01CF5F80915503C817D8F2EA
:1002C8001090420313FC04C0689413F81092420380
:1002D80011248091080180934A0383E080934B03A3
:1002E80087E880934C038091570380934D03809156
:1002F8000A0180934E030E94540D81E029CF10908B
:10030800430312FC04C0689412F8109243031124AA
:1003180081E0CF91FF90EF90DF90CF9008951090FB
:10032800430314FC04C0689414F810924303112486
:1003380010920101109213030E94420E8111A9C06C
:100348001090430316FC04C0689416F810924303F7
:10035800112480E0CF91FF90EF90DF90CF90089527
:100368001090420317FC04C0689417F810924203D7
:1003780011240E94420E882319F31092130340910E
:10038800550350E04150510914161506D4F480E085
:1003980090E020E01090430310FC04C0689410F82B
:1003A800109243031124FC01EC5AFC4F3381FC01E9
:1003B800EC5EFC4F30832F5F822F90E08417950707
:1003C8004CF31090430311FC04C0689411F8109288
:1003D800430311246091140385E090E00E945B0EB2
:1003E8006091150386E090E00E945B0E6091160311
:1003F80087E090E00E945B0E8091080180934A0399
:1004080083E080934B0384E880934C03809114032A
:1004180080934D038091570380934E030E94540D9F
:1004280010920A0181E094CE1090410317FC04C099
:10043800689417F810924103112481E08093010118
:10044800E0915703F0E0EE0FFF1FEE0FFF1FED5E88
:10045800FE4F8081803809F452CF1090420310FC7F
:1004680004C0689410F81092420311248091580334
:10047800808380915903818380915A03828380917C
:100488005B03838381E0CF91FF90EF90DF90CF9063
:1004980008951090430315FC04C0689415F8109251
:1004A800430311248091080180934A0381E08093DB
:1004B8004B0388E880934C030E94540D81E048CE9A
:1004C80080910601813009F484C0813008F44DC060
:1004D8008230B1F51090470316FC04C0689416F8F2
:1004E8001092470311248BE091E00E94AC0C882302
:1004F80091F18091050187FDF4C01090470317FC26
:1005080004C0689417F810924703112480910501DC
:100518008F5F809305011090480310FC04C0689415
:1005280010F81092480311241092070181E080937B
:100538000601809105010E949C048093050108959D
:100548001090480312FC04C0689412F810924803F3
:100558001124109206011090480315FC04C06894F9
:1005680015F810924803112408951090480313FCBD
:1005780004C0689413F81092480311248BE091E0AA
:100588000E94AC0C882339F31090480314FC04C073
:10059800689414F81092480311240E94A80E80E968
:1005A80091E0A0E0B0E080930F0190931001A09338
:1005B8001101B09312010E944F0E60930B017093CA
:1005C8000C0180930D0190930E0181E08093060148
:1005D80008951090480316FC04C0689416F8109209
:1005E800480311248BE091E00E94AC0C882309F4A5
:1005F800B2CFE0910501F0E0EE0FFF1FEE0FFF1FF5
:10060800ED5EFE4F418161E082E091E00E94050DC0
:1006180043E061E082E091E00E94F90DE09105017C
:10062800F0E0EE0FFF1FEE0FFF1FED5EFE4F428161
:1006380063E082E091E00E94050D47E064E082E01B
:1006480091E00E94F90D80910701833038F51090F0
:10065800480317FC04C0689417F810924803112443
:10066800809107018F5F8093070180E991E0A0E006
:10067800B0E080930F0190931001A0931101B09303
:1006880012010E944F0E60930B0170930C0180932E
:100698000D0190930E0110920601089510904903E0
:1006A80010FC04C0689410F810924903112480E4E7
:1006B80096E0A0E0B0E080930F0190931001A09322
:1006C8001101B09312010E944F0E60930B017093B9
:1006D8000C0180930D0190930E0182E08093060136
:1006E80008951090480311FC04C0689411F8109202
:0A06F80048031124109205010ECFF3
:1007020080910601813009F482C0813008F44BC027
:100712008230A1F51090460313FC04C0689413F8CC
:100722001092460311248BE091E00E94AC0C8823C6
:1007320081F18091050187FDF2C01090460314FCFF
:1007420004C0689414F810924603112480910501A4
:100752008F5F809305011090460315FC04C06894D6
:1007620015F810924603112481E0809306018091CE
:1007720005010E949C048093050108951090460390
:1007820017FC04C0689417F81092460311241092C3
:1007920006011090470312FC04C0689412F81092EC
:1007A2004703112408951090470310FC04C0689475
:1007B20010F81092470311248BE091E00E94AC0CD8
:1007C200882339F31090470311FC04C0689411F890
:1007D2001092470311240E94A80E80E991E0A0E044
:1007E200B0E080930F0190931001A0931101B09398
:1007F20012010E944F0E60930B0170930C018093C3
:100802000D0190930E0181E08093060108951090EE
:10081200470313FC04C0689413F810924703112491
:100822008BE091E00E94AC0C882309F4B2CFE091F6
:100832000501F0E0EE0FFF1FEE0FFF1FED5EFE4F12
:10084200418161E082E091E00E94050D43E061E0B8
:1008520082E091E00E94F90DE0910501F0E0EE0FD7
:10086200FF1FEE0FFF1FED5EFE4F428163E082E04D
:1008720091E00E94050D47E064E082E091E00E9471
:10088200F90D80910701811127C01090470314FCD4
:1008920004C0689414F81092470311248091070150
:1008A2008F5F8093070180E991E0A0E0B0E0809340
:1008B2000F0190931001A0931101B09312010E94B5
:1008C2004F0E60930B0170930C0180930D01909376
:1008D2000E011092060108951090470315FC04C002
:1008E200689415F810924703112480EA9FE0A0E073
:1008F200B0E080930F0190931001A0931101B09387
:1009020012010E944F0E60930B0170930C018093B1
:100912000D0190930E0182E08093060108951090DC
:10092200460316FC04C0689416F81092460311247C
:060932001092050110CF38
:1009380087FD2FC0E82FF0E0EE0FFF1FEE0FFF1F1F
:10094800ED5EFE4F9081943009F4FFC0982F15C0DA
:100958001090440310FC04C0689410F810924403EB
:100968001124E92FF0E0EE0FFF1FEE0FFF1FED5EE1
:10097800FE4F2081243009F473C01090430317FC04
:1009880004C0689417F81092430311249F5F97FFDF
:10099800DFCF90911301943009F458C021E030E082
:1009A8001090440312FC04C0689412F81092440397
:1009B8001124922FF901EE0FFF1FEE0FFF1FED5EBE
:1009C800FE4F4081443009F44BC01090440313FC9F
:1009D80004C0689413F81092440311242F5F3F4F0A
:1009E80020383105E9F687FD49C018C01090440346
:1009F80014FC04C0689414F81092440311249081E4
:100A08009130B9F01090440315FC04C0689415F8AF
:100A18001092440311248F5F87FD30C0E82FF0E067
:100A2800EE0FFF1FEE0FFF1FED5EFE4F908192301D
:100A3800E9F61090440316FC04C0689416F8109266
:100A48004403112492E090930901089510904503FE
:100A580016FC04C0689416F810924503112490E01F
:100A68001090450317FC04C0689417F810924503CA
:100A7800112484E080930901892F0895809113013E
:100A8800823009F44AC01090440317FC04C06894EB
:100A980017F8109244031124809113018130E9F171
:100AA80021E030E01090450310FC04C0689410F871
:100AB800109245031124922FF901EE0FFF1FEE0F3C
:100AC800FF1FED5EFE4F8081823089F11090450353
:100AD80011FC04C0689411F8109245031124808118
:100AE800813029F11090450312FC04C0689412F873
:100AF8001092450311242F5F3F4F2038310591F69E
:100B08001090450313FC04C0689413F81092450331
:100B180011241092090180E008951090450314FCF7
:100B280004C0689414F810924503112490E01090C2
:100B3800450315FC04C0689415F810924503112468
:100B480082E080930901892F08951090440311FCD5
:100B580004C0689411F8109244031124982F80CF90
:100B680080918803813029F180918803833008F4CB
:100B780040C0309135033138F0F58091860338173D
:100B8800D1F18BE0809381001092800080E893E49B
:100B9800909389008093880080916F008260809391
:100BA8006F00809189038C7F82608093890380E045
:100BB800089580918A038823E1F020918A03809127
:100BC800810390918203820F911D2BE02093810075
:100BD80010928000909389008093880080916F0024
:100BE800826080936F00809189038C7F81608093FD
:100BF800890380E008958091890387FD38C080E8E3
:100C0800830F8230B0F3809188038C3090F7509135
:100C18003603E52FF0E0EC5CFC4F60814FEF450FA9
:100C280009F444C0E6E3F3E0232F90E080E001C03C
:100C3800219192278F5F4813FBCF6913DACF309346
:100C480054038DEF850F80935503882371F0E7E3F4
:100C5800F3E0A6E5B3E05450852F90E0885C9C4F04
:100C680021912D93E817F907D9F781E0089520918C
:100C78008A038091810390918203820F911D2BE05A
:100C880020938100109280009093890080938800BF
:100C980080916F00826080936F00809189038C7FC0
:100CA80081608093890330913503A9CF90E0C5CF47
:100CB80080918D0384FD27C080918D0386FF7CC0C1
:100CC80080918D0387FF79C0E0918C0320918B037D
:100CD800F0E0E259FC4F80E890E002C095958795D6
:100CE8002A95E2F780830E944F0E60935E0370930B
:100CF8005F03809360039093610380918D0380610B
:100D080080938D0308958EE593E00E94AC0C8823B0
:100D1800C1F180918B038F5F80938B0380918B034C
:100D28008A3050F180918D03E0918C03F0E0E25914
:100D3800FC4F87FD53C08EE7808310928B03809110
:100D48008C038F5F80938C0390918C038091900328
:100D5800981790F08091910380938C0310926E0302
:100D680010926F0310927003109271031092720325
:100D7800109273031092740380918D038F7E809379
:100D88008D0380918D0386FD17C010928C031092FD
:100D98008B0380918D038F7E80938D0310926E0359
:100DA80010926F03109270031092710310927203E5
:100DB8001092730310927403089520918C0380910C
:100DC8008B0390E0A0E08E539F4FAF4FFC018491BE
:100DD800E22FF0E0E259FC4F808385CF1082ADCF3F
:100DE8001F920F920FB60F9211242F933F938F9358
:100DF8009F93AF93BF93EF93FF93809188038B30BA
:100E0800E8F5E09188038091C600F0E0EB5CFC4FC8
:100E180080838091890385FF1CC0A0918803E0919D
:100E28008703B0E0AB5CBC4FF0E0E65DFC4F9C9103
:100E38008081981781F180918A03865A80938A036A
:100E48001092870310928803809189038F7D809385
:100E58008903809188038F5F809388038BE0809358
:100E68008100109280008AE590E090938900809339
:100E7800880080916F00826080936F00FF91EF91EE
:100E8800BF91AF919F918F913F912F910F900FBE7E
:100E98000F901F9018952091870330E080912B03C5
:100EA80090E00197281739070CF1E5E3F3E080E4B7
:100EB80093E011928E179F07E1F7EAE2F3E085E3EA
:100EC80093E011928E179F07E1F710928703109213
:100ED8008A0310928803809189038F77809389030E
:100EE800809189038F7D80938903B3CF8091870395
:100EF8008F5F80938703E0918703F0E0E65DFC4F06
:080F080080818093C600A5CF93
:100F10001F920F920FB60F9211242F933F934F936E
:100F20005F936F937F938F939F93AF93BF93EF9351
:100F3000FF9310928100109285001092840080919E
:100F40006F008D7F80936F00809189038370D9F04B
:100F50008091890383708230D1F1809189038370FD
:100F60008130F9F0FF91EF91BF91AF919F918F91F7
:100F70007F916F915F914F913F912F910F900FBE95
:100F80000F901F9018950E94B40581111AC0E5E3D7
:100F9000F3E0119283E0E034F807D9F71092880368
:100FA000E1CF109288038091C00085FFFCCF809133
:100FB0002A038093C600809189038062809389030D
:100FC000D1CF80918903806180938903E0CF8091A4
:100FD000890387FFC7CF20918A0380918103909175
:100FE0008203820F911D2BE02093810010928000DC
:100FF000909389008093880080916F008260809335
:101000006F00809189038C7F816080938903AACFD0
:10101000CF93DF9381E00E943E0C81E08093080132
:1010200088E090E00E947D0E8F3F09F44BC0109045
:10103000410313FC04C0689413F810924103112477
:1010400088E090E0A0E0B0E080930F019093100161
:10105000A0931101B09312010E944F0E60930B01F7
:1010600070930C0180930D0190930E01209A1092C1
:10107000050110920701109206011092090185E006
:1010800090E00E947D0E8093140386E090E00E9421
:101090007D0E8093150387E090E00E947D0E809383
:1010A00016030E94020C84E790E00E94B20E87E9CA
:1010B0009AE00E94B70E1092130310920101DF9183
:1010C000CF910895C8E0D0E060E0CE010E945B0EB1
:1010D0002196C833D105C1F71090410314FC04C018
:0C10E000689414F8109241031124A1CF71
:1010EC000E949E0E84B5826084BD85B5836085BDEB
:1010FC0087ED87BD16BC18BC0E94720E1092C500FD
:10110C0083E28093C4008091C10088608093C10009
:10111C008091C10080618093C1008091C2008F7B5F
:10112C008093C2008091C2008F778093C20080911F
:10113C00C0008D7F8093C0008091C1008B7F809315
:10114C00C1008091C20084608093C2008091C20073
:10115C0082608093C2008091C200877F8093C2001E
:10116C008091C2008F7D8093C2008091C2008F7EDF
:10117C008093C2008091C10080688093C1000E945E
:10118C0097090E9497090E94BC0E0E943B090E947D
:10119C00670E80916E00826080936E0078940E943E
:1011AC00C60E0E94C80E0E94F2090E94DD0CF7CFF9
:1011BC009FB787FD38C0F89442989FBF9FB786FDB4
:1011CC0038C0F89429989FBF9FB785FD38C0F89414
:1011DC002A989FBF9FB784FD38C0F8942B989FBF67
:1011EC009FB783FD38C0F8942C989FBF9FB782FDA2
:1011FC0038C0F8942D989FBF9FB781FD0AC0F89412
:10120C0040989FBF80FF0AC08FB7F894419A8FBF58
:10121C000895F894409A9FBF80FDF6CF8FB7F8944D
:10122C0041988FBF0895F894429A9FBF9FB786FF4D
:10123C00C8CFF894299A9FBF9FB785FFC8CFF89461
:10124C002A9A9FBF9FB784FFC8CFF8942B9A9FBF51
:10125C009FB783FFC8CFF8942C9A9FBF9FB782FF8C
:0A126C00C8CFF8942D9A9FBFC7CF9A
:101276008BE290E490932903809328038BE290E21B
:1012860090932703809326038BE290E190932503A6
:10129600809324038BE298E09093230380932203A8
:1012A60088E298E0909321038093200388E290E1FE
:1012B60090931F0380931E0388E290E290931D0390
:1012C60080931C03569A559A549A539A3B9A3C9A81
:1012D6003D9A219A229A239A249A259A389A399ADB
:1012E6003A9AEEE6F3E0119283E0E537F807D9F78C
:1012F60010928F0310928E0310928B0310928C0320
:1013060010928D0387E0809390031092910380E9F9
:1013160091E0A0E0B0E08093620390936303A09312
:081326006403B0936503089510
:10132E0081E080936D0080916800846080936800F6
:10133E0010928903109288031092870310928A03E9
:10134E0010928603EAE2F3E0119283E0E533F807A8
:10135E00D9F7E5E3F3E080E493E011928E179F074F
:10136E00E1F72091860388E6289F90011124205FE3
:10137E003B4F40E050E060E472E48FE090E00E946A
:10138E007A0D2F5F3F4FC901A0E0B0E0880F991F83
:10139E00AA1FBB1F880F991FAA1FBB1F880F991F5B
:1013AE00AA1FBB1F880F991FAA1FBB1F9C01AD014F
:1013BE00220F331F441F551F220F331F441F551F6B
:1013CE0060E070EC88EA90E00E947A0D3093820320
:0613DE0020938103089535
:1013E40080919203882341F080919203813071F0BF
:1013F40080919203823009F0089586E693E00E947A
:10140400AC0C8823C9F310929203089586E693E006
:101414000E94AC0C882381F32091790330917A03E4
:1014240040917B0350917C03211531054105510501
:1014340081F0A8EEB3E00E94930E623E24E07207AE
:1014440081059105E8F022EE34E040E050E00E948E
:101454007A0D20936A0330936B0340936C0350938B
:101464006D030E944F0E609366037093670380932D
:1014740068039093690382E08093920345980895EA
:0A14840021E030E040E050E0E4CF4A
:10148E00EF92FF920F931F93CF93DF93082F029546
:10149E000F708F7021E030E0790102C0EE0CFF1C5E
:1014AE008A95E2F7C0E0D0E010E0085F1F4FC80158
:1014BE008C0F9D1F0E947D0E90E08E219F21892B07
:1014CE00F1F41090400315FC04C0689415F81092C6
:1014DE00400311246096C033D10549F710904003A4
:1014EE0016FC04C0689416F810924003112480E094
:1014FE00DF91CF911F910F91FF90EF900895109073
:10150E00400317FC04C0689417F81092400311248E
:10151E0081E0DF91CF911F910F91FF90EF90089591
:10152E0080915603813859F01090460310FC04C088
:10153E00689410F810924603112481E008951090DB
:10154E00460311FC04C0689411F81092460311244E
:10155E0080915703E82FF0E0EE0FFF1FEE0FFF1FF5
:10156E00ED5EFE4F90819038F9F21090460312FC1A
:10157E0004C0689412F810924603112410920701C9
:10158E001092060148E050E060E070E040930F01D9
:10159E0050931001609311017093120190915803B2
:1015AE00908390915B03918390915C0392839091D1
:1015BE005D0393830E949C048093050181E008954E
:1015CE0080918F03811138C0809128039091290357
:1015DE002FB7F894FC0187FF3DC0EF77FF27F1602E
:1015EE0080819095892380832FBFE0918F03F0E057
:1015FE00E259FC4F80810E94DE08E0918F03F0E0FB
:10160E00EE0FFF1FE45EFC4F808191812FB7F8949F
:10161E00FC0187FD21C0FF278081892B80832FBF8E
:10162E0080918F038F5F80938F0380918F0387301C
:10163E0010F010928F030895E0918F03F0E0EE0FFB
:10164E00FF1FE65EFC4F808191812FB7F894FC015D
:10165E0087FDC3CFFF27C4CFEF77FF27F160DCCF25
:10166E001F920F920FB60F9211242F933F934F9309
:10167E005F936F937F938F939F93AF93BF93EF93EC
:10168E00FF938091750390917603A0917703B091AB
:10169E0078030196A11DB11D809375039093760377
:1016AE00A0937703B0937803809185030E94E70A95
:1016BE00809185038770D1F0809185038F5F809331
:1016CE008503803111F410928503FF91EF91BF9144
:1016DE00AF919F918F917F916F915F914F913F91BC
:1016EE002F910F900FBE0F901F9018950E94160EFF
:0216FE00E3CF38
:1017000013C01090830311FC04C0689411F8109268
:101710008303112480910001815080930001809106
:101720001B038F5F80931B03809100018111E9CF20
:1017300080911B038336F8F01090830312FC04C0E1
:10174000689412F8109283031124809117039091EA
:101750001803A0911903B0911A030196A11DB11DA0
:101760008093170390931803A0931903B0931A035F
:1017700010921B0308951090830313FC04C0689417
:0A17800013F810928303112408955A
:10178A00FC018181282F30E02A3031059CF59081B7
:10179A0090932A038D5F80932B039181992399F06B
:1017AA0090E0292F30E0DF01A20FB31F12968C912F
:1017BA00D901A65DBC4F12968C939F5F81819817C1
:1017CA0080F380912B03E82FF0E0AF0141505109DB
:1017DA00813089F0EAE2F3E0825090E0855D9C4F27
:1017EA0020E031912327E817F907D9F7FA01E65DD6
:0A17FA00FC4F2083089520E0F9CF92
:101804001F93CF93DF93C0E0D0E010E80EC0109098
:10181400410310FC04C0689410F810924103112491
:1018240010822196C038D105D1F08C2F0E94470A2E
:10183400FE01EE0FFF1FEE0FFF1FED5EFE4F811145
:10184400E6CF1090410311FC04C0689411F8109283
:101854004103112410832196C038D10531F710902B
:10186400410312FC04C0689412F81092410311243D
:08187400DF91CF911F9108954F
:10187C00809386032091860388E6289F900111248B
:10188C00205F3B4F40E050E060E472E48FE090E07A
:10189C000E947A0D2F5F3F4FC901A0E0B0E0880F86
:1018AC00991FAA1FBB1F880F991FAA1FBB1F880F48
:1018BC00991FAA1FBB1F880F991FAA1FBB1F9C0132
:1018CC00AD01220F331F441F551F220F331F441F1E
:1018DC00551F60E070EC88EA90E00E947A0D30931E
:0818EC0082032093810308959B
:1018F400809105010E949C04809305018091090157
:101904008430E9F080910901823071F0109049032C
:1019140011FC04C0689411F810924903112447E0A3
:1019240061E081E00C94880E1090490312FC04C01D
:10193400689412F81092490311240C9481031090B6
:10194400490313FC04C0689413F81092490311244A
:041954000C94640289
:101958000F931F93FC01448155816681778177FD40
:1019680020C080819181A281B381840F951FA61F19
:10197800B71F2FB7F8944091750350917603609183
:101988007703709178032FBF8C019D0104271527D9
:101998002627372737FD05C0481759076A077B07E9
:1019A80020F480E01F910F91089581E01F910F911D
:0219B800089590
:1019BA000E942D0D882369F01090840313FC04C043
:1019CA00689413F81092840311240E947A0C0C94E0
:1019DA00800B1090840314FC04C0689414F81092CD
:1019EA00840311240E94C10E482F63E082E091E033
:1019FA000E94050D47E061E082E091E00C94F90D48
:101A0A00DC01442319F16623F1F0FC0190E08DEC2E
:101A1A0002C06917C9F0489F212D112426952695E1
:101A2A0026953AE0239F401911244193422F9F5F44
:101A3A002111EFCF961748F4FD01E90FF11D10822D
:101A4A009F5F6913F9CF08950895089590E0F2CF42
:101A5A0080910101882371F01090400312FC04C0A8
:101A6A00689412F81092400311249091160381E0B1
:101A7A00992351F01090400314FC04C0689414F8A0
:101A8A0010924003112408951090400313FC04C0DF
:0E1A9A00689413F810924003112480E0089520
:101AA8008AE493E00E94C50B20918A038091810308
:101AB80090918203820F911D2BE020938100109258
:101AC80080009093890080938800EFE6F0E08081A1
:101AD80082608083809189038068809389038091E4
:0C1AE80089038C7F81608093890308953E
:101AF400A1E21A2EAA1BBB1BFD010DC0AA1FBB1F0E
:101B0400EE1FFF1FA217B307E407F50720F0A21B7F
:101B1400B30BE40BF50B661F771F881F991F1A94EC
:101B240069F760957095809590959B01AC01BD0116
:041B3400CF01089540
:101B38000E94420E81110AC01090400310FC04C09C
:101B4800689410F8109240031124089510904003EF
:101B580011FC04C0689411F810924003112481E824
:101B680080934A0310924B030E94540D81E008951C
:101B78001F920F920FB60F9211248F93EF93FF933A
:101B8800109281001092850010928400EFE6F0E038
:101B980080818D7F8083809189038C7F80938903E6
:101BA800FF91EF918F910F900FBE0F901F90189596
:101BB8008091890384FF10C08091560387FD0DC072
:101BC800E0917F03F09180030995882329F08091A3
:101BD80089038F7E809389030895E0917D03F091B6
:0A1BE8007E0309958111F3CF0895E3
:101BF2000F931F936417B0F4562F252F261BFC0159
:101C0200E20FF11D008110E020E00E531F4F2F4F15
:101C1200F8010491E52FF0E0E259FC4F00835F5F89
:0A1C22004513EBCF1F910F910895B9
:101C2C001090840312FC04C0689412F81092840380
:0E1C3C001124809100018F5F809300010895B4
:101C4A00A29FB001B39FC001A39F700D811D1124F3
:0E1C5A00911DB29F700D811D1124911D0895E2
:101C68001090830310FC04C0689410F8109283034A
:0C1C780011241092000110921B0308952B
:101C84008091890387FD07C090918903937081E057
:0A1C9400923009F0089580E00895F1
:101C9E002FB7F89460917503709176038091770356
:081CAE00909178032FBF089507
:101CB6009C01F999FECF9FB7F89432BD21BD60BD56
:081CC600FA9AF99A9FBF0895F4
:101CCE001090840311FC04C0689411F810928403E0
:061CDE0011240C9408081B
:101CE4001092750310927603109277031092780382
:061CF40010928503089523
:101CFA009C01F999FECF9FB7F89432BD21BDF89A9D
:061D0A0080B59FBF0895A3
:101D1000641740F4E62FF0E0E259FC4F80836F5FD8
:061D20004613F8CF089500
:101D26000E94250EA59F900DB49F900DA49F800D37
:061D3600911D1124089527
:101D3C001090840310FC04C0689410F81092840373
:041D4C0011240895C1
:101D5000EEE6F3E010821182128213821482158261
:041D6000168208954A
:0A1D64009093800380937F0308959D
:0A1D6E0090937E0380937D03089597
:0A1D78003D9A4598109292030895D9
:061D820080918603089524
:041D88000C940000B7
:041D8C000C94DC0DCA
:041D90000C945C064D
:00000001FF
