:1000000015C0D2C643C942C941C940C911C33EC97E
:100010003DC96FC43BC90EC139C938C937C936C9D2
:1000200035C934C933C9006000DA800011241FBE0D
:10003000CFE5D4E0DEBFCDBFE6E2F0E040E017C0A0
:10004000B591A59135912591059107FD0CC095912C
:100050008591EF01F92FE82F05900D92A217B307B4
:10006000D9F7FE0104C01D92A217B307E1F7EB32E6
:0C007000F40731F74BD700C0F894FFCF25
:10007C00CF93DF93C091D200C53009F442C068F52C
:10008C00C23009F479C0C330C1F52FD88823E1F10F
:10009C0010926B00809161008093A700C093A80020
:1000AC0084E88093A9008091D5008093AA00909158
:1000BC006F008091D600981709F4B1C0BDD54AD80D
:1000CC00609362007093630080936400909365006A
:1000DC00A0D781E0DF91CF910895C630C9F0C73029
:1000EC0061F403D8882381F010926B008091610039
:1000FC009091D300981709F485C081E0DF91CF91DE
:10010C000895F3D7811156C080E0DF91CF91089507
:10011C001092600010926B00E8D78823A9F38091AD
:10012C0061008093A70081E08093A80088E8809309
:10013C00A90010926C00C0E0D0E0FE01E459FF4F22
:10014C006081CE010596C1D72196FE01E459FF4F7F
:10015C001082C430D10589F710926A00FBD76093E6
:10016C00620070936300809364009093650051D794
:10017C0081E0DF91CF910895B8D7882329F21092AE
:10018C006B0080917000882309F4B7CF80916A00CE
:10019C00833009F4B2CF8091D300809370008091AA
:1001AC0061008093A70081E08093A80085E880938C
:1001BC00A90085CF809161008093A700C093A8000F
:1001CC0082E88093A90080916F008093AA008091AF
:1001DC006C008093AB0080916E008093AC0080919A
:1001EC006D008093AD0081E080936000B3D7609385
:1001FC00620070936300809364009093650009D74C
:10020C0081E07CCF8091D40080937000809161005C
:10021C008093A70081E08093A80086E8C8CF8091E6
:08022C00D700809370004BCF56
:100234001F920F920FB60F9211242F933F934F9357
:100244005F936F937F938F939F93AF93BF93EF933A
:10025400FF938091CF008B3008F06BC0E091CF000A
:10026400F0E08CB1EE54FF4F80838091BD0085FF98
:1002740058C0E091CF00F0E0EE54FF4F9081E09140
:10028400B100F0E0EE53FF4F8081981779F0809130
:10029400A600865A8093A6001092B1001092CF0057
:1002A4008091BD008F7D8093BD003BC02091B10043
:1002B40030E08091C30090E0019728173907A4F437
:1002C4008091B1008F5F8093B100E091B100F0E0C4
:1002D400EE53FF4F80818CB924C0E82FF0E0EE5438
:1002E400FF4F10828F5F01C080E08B30B0F380E05D
:1002F40006C0E82FF0E0EE53FF4F10828F5F8B3083
:10030400C0F31092B1001092A6001092CF00809119
:10031400BD008F778093BD008091BD008F7D809359
:10032400BD008091CF008F5F8093CF008AE590E07D
:1003340042D7FF91EF91BF91AF919F918F917F91A0
:100344006F915F914F913F912F910F900FBE0F903E
:040354001F90189549
:10035800CF93DF936115710509F488C067FD04C068
:10036800FB01FF27329705C0FB01EF77FF27F160FC
:1003780032972081672F772730E062237323672B1A
:1003880011F091E001C090E0491324C0282F30E01B
:10039800F901EC56FF4F90819F5F9083953638F0B6
:1003A800F901EC56FF4F94E69083D0E031C09436C3
:1003B80031F421E0280F2F73D22FD06429C0913057
:1003C80021F5980FD92FDF739093920092E39093C1
:1003D80093001EC0482F50E0FA01EC56FF4F908161
:1003E8009923A9F0FA01EC56FF4F108221E0280F5B
:1003F800D22FD06C2091920030E04F5F5F4F2417CE
:10040800350731F41092920003C0D0E001C0D0E06B
:10041800DD2361F1C82F6D2F88E890E052D588233D
:1004280099F02D2F30E08C2F90E001968F7399274B
:1004380028173907D9F420E030E0A90164E670E014
:1004480080E090E0E5D212C02D2F30E08C2F90E0B4
:1004580001968F7399272817390741F420E030E077
:10046800A90168EC70E080E090E0D2D2DF91CF91F2
:020478000895E5
:10047A00CF93DF930BD6811140C010927700809101
:10048A007700811129C08AE790E076D3882309F1A1
:10049A0080917800813009F451C008F446C0823056
:1004AA0009F450C0833019F4AA98AC98AB9853D683
:1004BA0060937A0070937B0080937C0090937D0018
:1004CA00809178008430A8F5809178008F5F8093BE
:1004DA007800DF91CF9196C6CCD68130C1F08230B8
:1004EA00C1F7DFB7CFB7F894C1D680937900DFBFE1
:1004FA00CFBF44D2DF91CF9185C680917700811119
:10050A00BECF81E08093770010927800B8CFDFB732
:10051A00CFB7F894ABD680937900DFBFCFBF2ED286
:10052A00A2D68111D6CF8ED5D4CFAA9AAC98AB9841
:10053A00BECF10927800DF91CF9164C6AA98AC9A88
:0C054A00AB98B5CFAA98AC98AB9AB1CF93
:10055600CF938091CF008130B1F48091A60088239B
:1005660009F461C02091A6008091C0009091C1005D
:10057600820F911D1FD68091BD008C7F8160809374
:10058600BD0080E050C08091CF00833008F442C0A7
:100596008091B200813878F490916100891759F002
:1005A60080E893E407D68091BD008C7F82608093BB
:1005B600BD0080E038C08091BD0088237CF4209186
:1005C600A6008091C0009091C100820F911DF2D5C6
:1005D6008091BD008C7F81608093BD008091B200C8
:1005E6008138D1F08038D1F08091CF008C30C0F4C2
:1005F6006091B300E62FF0E0EF54FF4FC0816150E9
:1006060082EB90E091D5C8130DC080ED90E0D2D476
:1006160081E009C080E007C080E005C080E003C03B
:0A06260080E001C080E0CF9108954C
:100630001F920F920FB60F9211242F933F934F9357
:100640005F936F937F938F939F93AF93BF93EF933A
:10065000FF93EBD58091BD008370A9F47CDF8823E4
:1006600029F08091BD0080618093BD0080E006C0CC
:10067000E82FF0E0EE54FF4F10828F5F8B30C0F315
:100680001092CF002AC08091BD0083708230A1F407
:100690008091BD0088230CF52091A6008091C000B8
:1006A0009091C100820F911D88D58091BD008C7FF3
:1006B00081608093BD0011C08091BD008370813046
:1006C00061F41092CF005D9BFECF8091C2008CB987
:1006D0008091BD0080628093BD00FF91EF91BF913A
:1006E000AF919F918F917F916F915F914F913F91CA
:0C06F0002F910F900FBE0F901F901895D7
:1006FC0087B38D7F87BB88B3826088BB87B38B7FC2
:10070C0087BB88B3846088BB87B3877F87BB88B37C
:10071C00886088BB87B38F7E87BB88B3806188BBBA
:10072C0087B38F7D87BB88B3806288BB84B38E7F91
:10073C0084BB85B3816085BB84B38D7F84BB85B35B
:10074C00826085BB85B78D7F85BF85B7816085BF8E
:10075C008BB780648BBF1092BD001092CF001092AB
:10076C00B1001092A6001092610080E006C0E82F44
:10077C00F0E0EE53FF4F10828F5F8B30C0F380E0C0
:10078C0006C0E82FF0E0EE54FF4F10828F5F8B30E5
:10079C00C0F30AD08093610080916100B8D190932E
:0807AC00C1008093C000089514
:1007B40086B3482F427081FD41E0842F26B3922FE7
:1007C400947022FD91E0492F50E0440F551F842B73
:1007D40026B3922F987023FD91E0492F50E0440FE7
:1007E400551F440F551F482B86B3982F907184FDD5
:1007F40091E0892F90E0880F991F880F991F880F27
:10080400991F842B96B3292F207295FD21E090E146
:10081400299F90011124822B23B3922F917020FDE4
:1008240091E0292F30E0220F331F22953295307F3B
:100834003227207F3227282B93B3892F827091FD92
:1008440081E030E4839FC0011124822B09F48FE7F7
:040854008F770895FD
:10085800CF93DF9380919C00882309F443C0809153
:100868009C008130A9F58DE990E087D18823D1F1EA
:10087800209198003091990040919A0050919B00E6
:10088800211531054105510599F0A8EEB3E087D44B
:10089800623E24E072078105910530F022EE34E0D3
:1008A80040E050E0ECD204C021E030E040E050E00D
:1008B800CDE9D0E02C833D834E835F834DD468839C
:1008C80079838A839B8382E080939C00C9D40AC081
:1008D80080919C00823031F48DE990E04ED18111F5
:0A08E80010929C00DF91CF9108955B
:1008F2001F920F920FB60F9211242F933F934F9393
:100902005F936F937F938F939F93AF93BF93EF9375
:10091200FF938091830090918400A0918500B09113
:1009220086000196A11DB11D8093830090938400DF
:10093200A0938500B0938600809182008F7009F4A5
:1009420008D280918200877009F475D48091820068
:100952008F5F80938200803111F41092820088E2CE
:1009620082BFFF91EF91BF91AF919F918F917F9144
:100972006F915F914F913F912F910F900FBE0F900A
:040982001F90189515
:10098600809179008F3F91F080917900823071F1EA
:1009960070F4882311F1813031F4AA9AAB9AAC9A9B
:1009A6001BD481112CC08FEF80937900089583307A
:1009B60059F08430C1F710927800AA9AAB98AC9897
:1009C6008FEF80937900F2CF10927800AA98AB9AB5
:1009D600AC9A8FEF80937900E9CF10927800AA98AD
:1009E600AB98AC9A8FEF80937900E0CF10927800A5
:1009F600AA98AB9AAC988FEF80937900D7CF28EE60
:100A060033E040E050E064E670E080E090E001D042
:020A1600CACF45
:100A1800CF92DF92EF92FF92CF93DF9369017A0131
:100A2800611571058105910589F0A8EEB3E09B0178
:100A3800AC01B5D3623E24E072078105910550F000
:100A480022EE34E040E050E01AD208C020E030E066
:100A5800A90104C021E030E040E050E0CDE9D0E059
:100A68002C833D834E835F8377D3688379838A831E
:100A78009B8381E080939C00C0929800D09299005B
:100A8800E0929A00F0929B00E7D3DF91CF91FF901C
:080A9800EF90DF90CF9008956C
:100AA000CF93DF93EED380936100C0E0D0E0CE011E
:100AB000059630D3FE01E459FF4F80832196C43060
:100AC000D105A9F78EE390E0BDD38EE796E0BFD3C2
:100AD00010926B001092600080916E008823D9F014
:100AE00081E080936A0088E893E1A0E0B0E0809321
:100AF000660090936700A0936800B093690030D3BC
:100B0000609362007093630080936400909365002B
:0A0B1000DF91CF91089582E0E4CF59
:100B1A0028E6829FC00111249C01205F3B4F40E0E0
:100B2A0050E060E472E48FE090E0A8D12F5F3F4F7D
:100B3A00C901A0E0B0E0880F991FAA1FBB1F880F48
:100B4A00991FAA1FBB1F880F991FAA1FBB1F880FB7
:100B5A00991FAA1FBB1F9C01AD01220F331F441FFF
:100B6A00551F220F331F441F551F60E070EC88EA9F
:080B7A0090E084D1C901089547
:100B8200CF92DF92EF92FF920F931F93FC01C480EA
:100B9200D580E680F780FF20C4F080819181A28118
:100BA200B381C80ED91EEA1EFB1ED9D29701860157
:100BB200062717272827392733234CF06C157D0584
:100BC2008E059F0530F480E005C080E003C080E020
:100BD20001C081E01F910F91FF90EF90DF90CF90C5
:020BE200089574
:100BE400CF93DF93FC012181822F90E002960C9732
:100BF40024F58081A2ECB0E08C932D5F11962C93A8
:100C040090E00CC0292F30E0DF01A20FB31F129631
:100C14008C91D901AC53BF4F8C939F5F81819817FE
:100C240088F36091C300C62FD0E02197615082EC15
:100C340090E07BD2CE53DF4F8883DF91CF9108952C
:100C4400CF93DF933091D100332361F0E3EDF0E0F3
:100C540080E090E02191DC01A459BF4F2C930196D0
:100C64008317C0F3C0E0D0E0FE01E459FF4F608178
:100C7400CE0105962ED22196C430D105A9F78091D4
:100C84006E00882331F081E080936A00DF91CF9178
:0E0C9400089582E080936A00DF91CF91089569
:100CA20080E006C0E82FF0E0EC56FF4F10828F5F25
:100CB2008430C0F344E06EE870E088E890E096D2B9
:100CC200109292001092930081B3877F81BB82B30E
:100CD200886082BB81B38F7E81BB82B3806182BB1D
:100CE20081B38F7D81BB82B3806282BB81B38F7BF4
:0A0CF20081BB82B3806482BB0895C9
:100CFC008091D200813811F080E0089580916A00D3
:100D0C00813061F0823031F4809161009091D50096
:100D1C00981769F010926B0081E008959091610032
:100D2C002091D300291751F010926B0008958091F7
:100D3C00D6008093700010926B00ECCFFFD18091A5
:080D4C00D40080937000E6CF93
:100D540040E062E378E080E0FDDA40E062E370E1E5
:100D640081E0F8DA40E062E370E282E0F3DA40E046
:100D740062E370E483E0EEDA80919200882389F0E4
:100D84008091930081508093930081110AC08AE07E
:100D940080939300609192006F73606888E890E09C
:040DA40092D008954C
:100DA8001F920F920FB60F9211242F933F934F93D8
:100DB8005F936F937F938F939F93AF93BF93EF93BB
:100DC800FF932FD28091BD008C7F8093BD00FF914F
:100DD800EF91BF91AF919F918F917F916F915F91AB
:100DE8004F913F912F910F900FBE0F901F90189524
:100DF8000F931F93CF93DF93EC018B01FCD18111EB
:100E080014C0EC81FD818981E80FF11D8081F80112
:100E1800808389818F5F89839A8191509A839B818E
:100E2800891305C0198281E003C080E001C081E018
:0A0E3800DF91CF911F910F910895F3
:100E42008091BD0084FF1DC08091D20088236CF484
:100E5200E091CD00F091CE000995882391F0809128
:100E6200BD008F7E8093BD000895E091BE00F09199
:100E7200BF000995882329F08091BD008F7E809361
:040E8200BD00089512
:100E8600A1E21A2EAA1BBB1BFD010DC0AA1FBB1F88
:100E9600EE1FFF1FA217B307E407F50720F0A21BFA
:100EA600B30BE40BF50B661F771F881F991F1A9467
:100EB60069F760957095809590959B01AC01BD0191
:040EC600CF010895BB
:100ECA001F93CF93DF93EC01162F7BD1811112C0B0
:100EDA00EC81FD818881E80FF11D108388818F5F85
:100EEA0088839A819F5F9A839B81891305C01882A0
:100EFA0081E003C080E001C081E0DF91CF911F91C2
:020F0A00089548
:100F0C00A5D183B7836083BF88E282BF3BD110BC7D
:100F1C0083E289B98AB188618AB980B5866880BD57
:100F2C008AB180688AB9E4DBE3DBB5DE71D19BD092
:100F3C0089B7816089BF7894A1D188DC98DAFCCF1D
:100F4C002F923F924F925F926F927F928F929F92CD
:100F5C00AF92BF92CF92DF92EF92FF920F931F93BB
:100F6C00CF93DF93CDB7DEB7CA1BDB0B0FB6F8946C
:080F7C00DEBF0FBECDBF0994DA
:100F84002A88398848885F846E847D848C849B8415
:100F9400AA84B984C884DF80EE80FD800C811B8123
:100FA400AA81B981CE0FD11D0FB6F894DEBF0FBE52
:060FB400CDBFED01089520
:100FBA00DC01E2EBF0E080818C9351815350119671
:100FCA005C93119790E00BC0292F30E0F901EC54A3
:100FDA00FF4F4081FD01E20FF31F42839F5F951788
:040FEA0098F30895DB
:100FEE0092E090936B0020916100E7EAF0E020839D
:100FFE0025E021839283ACE6B0E09C919383119619
:10100E009C911197948312969C919583868300C030
:10101E0087EA90E0E0DD2091A6008091C0009091DB
:10102E00C100820F911DC2D08091BD008068809357
:10103E00BD008091BD008C7F81608093BD000895BE
:10104E0033D0882341F0813049F0833031F0823043
:10105E0039F0843009F0089580E0C2CF82E0C0CF2D
:04106E0084E0BECF8D
:10107200109277001092780012DD80EA90E0A0E0F2
:10108200B0E080937E0090937F00A0938000B093A5
:04109200810008953C
:1010960080916000882349F080916F00882329F0B1
:1010A60090916F0081E09F3F09F0089580E00895D8
:1010B600A1E0B0E0E0E6F8E056CFBE016F5F7F4FFB
:1010C60088E890E096DE811189812196E2E067CF7B
:1010D6009C01E199FECF9FB7F8943FBB2EBB6DBB39
:1010E6008CB384608CBB8CB382608CBB9FBF08952D
:1010F6008091BD0088233CF08091BD0083708230D2
:0E11060021F480E0089580E0089581E00895CE
:101114009C01E199FECF9FB7F8943FBB2EBB8CB3E3
:0A11240081608CBB8DB39FBF08955E
:10112E00AC0190E080E006C0FA01E90FF11D2081CC
:0A113E0082279F5F9617C0F3089503
:10114800D6DF811101C0089581E88093A70010922D
:08115800A80061DF81E00895A9
:101160002FB7F8946091830070918400809185007E
:08117000909186002FBF089545
:10117800A29FB001B39FC001A39F01D0B29F700D81
:08118800811D1124911D089541
:1011900010928300109284001092850010928600B5
:0611A00010928200089588
:1011A600E8DFA59F900DB49F900DA49F800D911D23
:0411B6001124089563
:1011BA002BE02EBD1FBC9BBD8ABD89B7806189BF4C
:0211CA00089586
:1011CC00FC0122818381281302C081E0089580E014
:0211DC00089574
:1011DE0080919C00811102C081E0089580E0089505
:1011EE00FC017583648343831282108211820895F9
:1011FE00FC018281811102C081E0089580E0089592
:0E120E0082E690E0B7DC811110926000089536
:0E121C0084B3806284BB22D010929C0008959F
:0E122A001EBC1DBC1CBC89B78F7E89BF0895F9
:0C123800809171008F5F80937100089519
:0A1244009093BF008093BE00089550
:0A124E009093CE008093CD00089528
:08125800A29AA39AA49A08953A
:0812600085B3806285BB08958F
:0812680085B38F7D85BB08955D
:0612700080916B0008955F
:0612760080917000089554
:06127C0080916A00089554
:0612820080916100089557
:04128800DCDD08950C
:02128C00B9C6E1
:00000001FF
