:100000000C945E000C9491330C9491330C94493011
:100010000C9491330C9491330C9491330C94913350
:100020000C9491330C9491330C9491330C94913340
:100030000C94F91F0C9491330C9491330C94DE259D
:100040000C9491330C9491330C9491330C94913320
:100050000C9491330C9491330C9491330C94913310
:100060000C9491330C9491330C9491330C94913300
:100070000C9491330C9491330C940F1B0C9491338A
:100080000C9491330C9491330C9491332E16B0163A
:10009000A6169C1692168816BA16A205D605CE0587
:1000A000C6059B05BE05B605C20C640D5A0D3C0D78
:1000B000320D460D500D01000300800011241FBEBB
:1000C000CFEFD0E1DEBFCDBFE6EBF0E040E019C0FE
:1000D000B791A79137912791079107FD0EC097918E
:1000E0008791EF01F92FE82F0BBF07900D92A21710
:1000F000B307D9F7FE011BBE04C01D92A217B307B8
:10010000E1F7EB3BF40721F70E9472200C94880082
:04011000F894FFCF91
:10011400300031003200330034003500360037003F
:10012400380039003A0020496E76616C69642054C5
:10013400696D6500506C6561736520547279204166
:100144006761696E005365742043757272656E74DD
:100154002054696D6500253032643A253032643AA2
:1001640025303264005341540053414E004D4F4EEC
:1001740000545553005745530054485300465245C4
:10018400005365742043757272656E742044617403
:100194006500534154202020253032642D2530320F
:1001A400642D3230253032640053414E2020202506
:1001B4003032642D253032642D32302530326400E3
:1001C4004D4F4E202020253032642D253032642DB1
:1001D40032302530326400545553202020253032EB
:1001E400642D253032642D32302530326400574579
:1001F40044202020253032642D253032642D3230C5
:100204002530326400544852202020253032642D99
:10021400253032642D323025303264004652492074
:100224002020253032642D253032642D32302530A3
:100234003264005745440054485200465249002D48
:0F0244000020496E76616C696420446174650026
:100253004E6F20436F6E66696775726174696F6E66
:1002630000506C6561736520456E746572204D6F37
:10027300646500534154202020253032642D2530FD
:1002830032642D3230253032640053414E20202019
:10029300253032642D253032642D323025303264DE
:1002A300004D4F4E202020253032642D25303264FE
:1002B3002D32302530326400545553202020253010
:1002C30032642D253032642D3230253032640057AC
:1002D3004544202020253032642D253032642D32D0
:1002E30030253032640054485220202025303264B7
:1002F3002D253032642D3230253032640046524988
:10030300202020253032642D253032642D323025D3
:10031300303264004D4F4445202020253032643A6A
:10032300253032643A253032640050617469656E59
:10033300742049443A25640043616C6C2053746112
:10034300746500456D657267656E637920537461EA
:10035300746500417373697374616E6365205374CC
:04036300617465005C
:100367004D656D6F727920496E6974202025303292
:1003770064005A6F6E6520496E69742025303264B7
:10038700004C6F6164204D656D6F727920202530B8
:10039700326400300031003200330034003500365B
:1003A700003700380039005A4944004144440025C9
:1003B7003033640030303000496E76616C696420F8
:1003C7004164647265737300456E7465722056618B
:1003D7006C6964206B657900496E76616C6964208D
:1003E700526F6F6D00496E76616C69642044697362
:1003F700706C6179004164647265737320426C6F3D
:10040700636B656400556E646566696E656420524A
:100417006F6F6D00556E646566696E65642044692B
:1004270073706C617900456E7465722056616C69F2
:1004370064204B65790041444420202049444420EE
:100447002020524F4100506C6561736520456E74E2
:10045700657200436F6E6669726D6564204B6579DE
:100467000052656D6F76696E672020202020253049
:03047700326400EC
:10047A00332E4572617365207A6F6E6500322E45A0
:10048A0072617365204461746100312E526573652F
:10049A0074204461746100322E526570204E657476
:1004AA00776F726B2000312E54657374204E657419
:1004BA00776F726B2000342E526573657400332E89
:1004CA005A6F6E657300322E506F696E7473003105
:1004DA002E4E6574776F726B00352E526573657494
:1004EA00204461746100342E53756D6D6172790018
:1004FA00332E5265706F72747300322E44617465C4
:10050A0000312E54696D6500322E53797374656D0E
:10051A0000312E5573657200302E53595354454D90
:06052A00204D454E550076
:1005300052050041050085050051060061187A0446
:0105400000BA
:100541003005005205008505005106006F32870411
:0105510000A9
:1005520041050030050085050051060078329404FB
:010562000098
:10056300740500740500B805005106009533A10415
:010573000087
:10057400630500630500B805005106009333B00419
:010584000076
:10058500B805009605001E06005205009733C00405
:010595000065
:10059600850500A705001E06005106003008C804A0
:0105A6000054
:1005A700960500B805001E06005106005803D00442
:0105B7000043
:1005B800A705008505001E06007405009733D904B9
:0105C8000032
:1005C9000D0600DA05002F06005106007832E30413
:0105D9000021
:1005DA00C90500EB05002F06005106009733F00409
:0105EA000010
:1005EB00DA0500FC05002F06005106009733FA04CC
:0105FB0000FF
:1005FC00EB05000D06002F0600510600890C0405C2
:01060C0000ED
:10060D00FC0500C905002F0600510600EF140B056F
:01061D0000DC
:10061E002F06002F0600400600B80500973312057E
:01062E0000CB
:10062F001E06001E06004006000D060097331B0530
:01063F0000BA
:100640005106005106005106002F0600973322057F
:0106500000A9
:100651000000000000000000000000000000000099
:010661000098
:0C0662001F1C1F1E1F1E1F1F1E1F1E1F1F
:0C066E001F1D1F1E1F1E1F1F1E1F1E1F12
:08067A001F1F1F1F1F1F1F1F80
:080682001F1E1E1E1E1E1E1F7E
:08068A001F1C1C1C1C1C1C1F82
:080692001F1818181818181F92
:08069A001F1010101010101FBA
:0806A2001F0000000000001F12
:0306AA00256400C4
:0206AD0020002B
:1006B0002F923F924F926F927F928F92CF92DF92C2
:1006C000EF920F931F93CF93DF9300D01F92CDB77C
:1006D000DEB780914D02882379F10E94A532811105
:1006E00013C010E0812F0F900F900F90DF91CF91EA
:1006F0001F910F91EF90DF90CF908F907F906F9030
:100700004F903F902F9008950E94711A0E945C3381
:10071000182F833009F4F5C008F49FC0863009F41F
:10072000B3C1873009F461C18530D9F610924D020A
:100730000E94033310E0D6CF0E94193280E00E945D
:10074000D43280913A0287FDD7C003C08F5F87FD06
:10075000D3C0E82FF0E0EE0FFF1FE65CFE4F908164
:100760009923A1F380933A0280913A028F3F09F4D2
:10077000C5C040913A0289E0489FA001112402E0DF
:100780002BE332E060EA84E492E00E94C9198823F6
:1007900009F4A3CF2DE334E040E060E080E00E9464
:1007A000832680913A021F928F9346EBC42E43E03A
:1007B000D42E40E0E42EEF92DF92CF928E010F5FB5
:1007C0001F4F1F930F930E94CE2C380190E8892E63
:1007D000482D930160E081E00E94832680913B02D6
:1007E0001F928F93EF92DF92CF921F930F930E94ED
:1007F000CE2C482D930166E081E00E9483268091F3
:100800003C021F928F93EF92DF92CF921F930F9330
:100810000E94CE2C482D93016CE081E00E9483263B
:10082000E0913A02F0E0EE0FFF1FE65CFE4F8081A0
:1008300080934A0281E080934D0280914C0280684F
:1008400080934C0280914C028F7D80934C020FB6B6
:10085000F894DEBF0FBECDBF40CF813009F4BCC0DD
:10086000823009F03ECF40E061E0CE0101960E9467
:10087000842FCE0101960E94643380933D0246E0AE
:1008800061E0CE0101960E94842FCE0101960E9464
:10089000643380933B024CE061E0CE0101960E94FC
:1008A000842FCE0101960E94643380933C028BE337
:1008B00092E00E949E2C8093390110913901111110
:1008C00019C180913D0280933A0280914A028F3F84
:1008D00009F427C190913A0280914A02890F8093CE
:1008E0004A0280914A0280933D0280914C02887FA7
:1008F000866080934C02F6CE8FEF34CF10923A028E
:1009000038CF0E947F33843008F0EBCE40E061E0C6
:10091000CE0101966C010E94842FC6010E946433AF
:1009200080933D029927FC01EE0FFF1FE65CFE4F0E
:100930002081222309F4FCCEAC01440F551F440F43
:10094000551F440F551F480F591F02E02BE332E09B
:1009500060EA84E492E00E94C919882309F4C1CEB8
:100960000E94033380913B021F928F9336EB632EDC
:1009700033E0732E30E0832E8F927F926F92DF925E
:10098000CF920E94CE2C160190E8492E442D910161
:1009900066E081E00E94832680913C021F928F9343
:1009A0008F927F926F92DF92CF920E94CE2C442D35
:1009B00091016CE081E00E94832680913D0280934A
:1009C0003A0280914C02806880934C020FB6F894F2
:1009D000DEBF0FBECDBF85CE0E9403330E9482339F
:1009E00010924D0210923A027DCEE0913A02F0E070
:1009F000EE0FFF1FE65CFE4F8081882309F498CE3E
:100A0000EBE3F2E084E492E011928E179F07E1F7A6
:100A100040913A0289E0489FA00111240AE02BE3AB
:100A200032E060EA84E492E00E94D11C882309F459
:100A300058CEE0913A02F0E0EE0FFF1FE65CFE4F69
:100A40001082E0913A02F0E0EE0FFF1FE65CFE4FED
:100A5000118210924D020E94033380913A0281501C
:100A600080933A0280913A0287FF04C054C08F5F9E
:100A700087FD51C0E82FF0E0EE0FFF1FE65CFE4F50
:100A800090819923A1F32DCE40913A0299E0499F9C
:100A9000A001112403E02BE332E060EA84E492E059
:100AA0000E94D11C882309F41CCEE0913A02809167
:100AB0004A02F0E0EE0FFF1FE65CFE4F80831092CB
:100AC0004D020E94033380913A028F5F80933A0275
:100AD00080913A0287FF04C01EC08F5F87FD1BC054
:100AE000E82FF0E0EE0FFF1FE65CFE4F90819923A8
:100AF000A1F3F7CD0E9419320E940F33E091390122
:100B00008E2F90E08730910588F010923901109275
:100B10004D0211E0E7CD10923A021092540211E01A
:100B2000E1CD80913A0280934A02DBCEFC01E35B87
:100B3000FF4F0C948A322CEF33E040E06FEF80E0FF
:100B40000E9483262DE234E040E06FEF81E00E94B6
:100B5000832680914C02806880934C0280914C02E5
:100B6000887F846080934C0210E0BCCD2BE134E0A0
:100B700040E06FEF80E00E948326E4CF2CE034E079
:100B800040E06FEF80E00E948326DCCF2CEE33E064
:100B900040E06FEF80E00E948326D4CF2FED33E05A
:100BA00040E06FEF80E00E948326CCCF2FEB33E054
:0C0BB00040E06FEF80E00E948326C4CF7D
:100BBC000F931F93CF93DF930E940032882309F485
:100BCC0072C0C0911501CC2309F472C0C13009F474
:100BDC00EAC0C53009F409C1C73009F47DC1C6307B
:100BEC0009F49CC1C83009F4C7C0C33009F492C0E1
:100BFC00C23009F058C081E0809315019FEF9093AB
:100C0C00C702C093C802C093C90290911F0196FFFE
:100C1C0012C18093CA0288E290E0A0E0B0E0809319
:100C2C00100190931101A0931201B09313010E9433
:100C3C000D3260930C0170930D0180930E01909313
:100C4C000F01DF91CF911F910F910C949A2E40912F
:100C5C004B02F0E14F9FA001112447575B4F20E05E
:100C6C0060E189E291E00E9488318823E1F02091D3
:100C7C001401E22FE295EF70F0E0E75DFE4F80810A
:100C8C0090E02F7002C0959587952A95E2F780FD2C
:100C9C00BDC180914B02833008F0BFC180914B02E3
:100CAC008F5F80934B02DF91CF911F910F9108952D
:100CBC0064E171E085E191E00E94A82D8CE091E067
:100CCC000E943D2C882379F380911F0184FFEBCF88
:100CDC00809115018111E7CF0E94692F8F3F19F385
:100CEC0085E08093150180E496E0A0E0B0E080936D
:100CFC00100190931101A0931201B09313010E9463
:100D0C000D3260930C0170930D0180930E01909342
:100D1C000F01C9CF80911F0185FFA5C04091CC0266
:100D2C00442309F45AC189E0489FA001112420E012
:100D3C0061E08BE392E00E948831882309F4B3CF01
:100D4C0081E08093150180913B028093CB020E943D
:100D5C000D3260930C0170930D0180930E019093F2
:100D6C000F0180911F018F7D80931F01DF91CF9127
:100D7C001F910F910C949A2E8091170183708230E1
:100D8C0009F4D8C0833009F45CC0813009F45FCF1A
:100D9C0010924B0210920B01809117018C7F816095
:100DAC008093170180CF8CE091E00E943D2C88232A
:100DBC0009F479CF0E94C93180E496E0A0E0B0E05C
:100DCC008093100190931101A0931201B093130121
:100DDC000E940D3260930C0170930D0180930E01F3
:100DEC0090930F01109215015ECF0E94322688233A
:100DFC0029F181E0809315018FEF8093C702C09396
:100E0C00C802C093C9020AEC12E0C8EFDFEF0E94DF
:100E1C008132DC01CB010C2E04C0B695A7959795B9
:100E2C0087950A94D2F7F80181938F012896C831DF
:100E3C00D10569F7F0CE1092CA02EDCEC091150122
:100E4C00CBCE809114018093C70291E09093C8029D
:100E5C0089E08093C902809117018C7F80931701E0
:100E6C0090931501D8CE4091140129E0429FA00126
:100E7C00112420E062E08BE392E00E948831882309
:100E8C0009F411CF80913C0290913B02E091140146
:100E9C00E093C702811103C0992309F4C6C026E070
:100EAC002093C80223E02093C9029093CA021092A7
:100EBC00CB028093CC02F0E0EE0FFF1FE65CFE4FFE
:100ECC0080818093CD0281818093CE0280911F011D
:100EDC00806280931F01E7CE81E0809315018FEF34
:100EEC008093C70286E08093C802C093C902E09148
:100EFC001401E093CA02F0E0EE0FFF1FE65CFE4F18
:100F0C0081818093CB028091F5028093CC028091F9
:100F1C00F7028093CD021092CE027DCE81E08093B9
:100F2C001501909114019093C7028093C802C0934D
:100F3C00C90271CE809114018093C70220910B01DC
:100F4C0080E190E0821B910906970CF056C08091CD
:100F5C000B01C2E1C81BC093C80288E08093C90290
:100F6C0080914B028093CA02C330B0F0ABECB2E07C
:100F7C00C3502C2F30E024533D4FE0910B01F0E097
:100F8C00E75DFE4F80818D9380910B018F5F809385
:100F9C000B01A217B30789F781E08093150188E252
:100FAC0090E0A0E0B0E08093100190931101A09329
:100FBC001201B09313010E940D3260930C017093D7
:100FCC000D0180930E0190930F010E949A2E809137
:100FDC0017018C7F8093170166CE81E080931501F9
:100FEC0088E290E0A0E0B0E08093100190931101B2
:100FFC00A0931201B0931301AACEC093C802C09360
:10100C00C90280914B028093CA02B0CF8091170124
:10101C008C7F82608093170146CE10924B02809198
:10102C0017018360809317013ECE84E08093C80241
:10103C00C093C9021092CA021092CB02F0E0EE0FDC
:10104C00FF1FE65CFE4F80818093CC0281E0809391
:04105C001501EDCDC0
:101060006F927F928F92CF92DF92EF920F931F93A6
:10107000CF93DF9300D01F92CDB7DEB710914D0212
:10108000112319F10E94A532882379F080914D0235
:10109000813009F461C080914D02823009F43FC073
:1010A00080914D02833009F46EC010E0812F0F90C3
:1010B0000F900F90DF91CF911F910F91EF90DF90E4
:1010C000CF908F907F906F90089580E00E94D432EF
:1010D00010923A0210924B020E9419322EEA33E02B
:1010E00040E060E080E00E94832622EB33E040E0B5
:1010F0006CE080E00E94832680914C02806880939F
:101100004C0280914C02877F80934C0280914C026C
:10111000806280934C0281E080934D02C7CFE091C2
:101120004B0220914B02E295EF70F0E0E75DFE4F3D
:10113000808190E02F7002C0959587952A95E2F7FF
:1011400080FD7FC080914B0287FD62C080914B0281
:101150008F5F80934B02A9CF40913A0280E1489F74
:10116000A001112447575B4F00E129E231E060EA1A
:1011700084E492E00E94C919882309F496CF82E0A2
:1011800080934D0292CF0E94711A0E945C3381308D
:1011900009F40BC1823009F4A0C09DEF980F923082
:1011A00008F483CF853009F451C1863009F07DCF32
:1011B00010913901112309F42DC180914C0284FB57
:1011C000112710F940913A0284FDFBC080E1489F4D
:1011D000A001112447575B4F80913B02480F511DDE
:1011E00001E02EE332E060EA84E492E00E94C91953
:1011F000882309F45ACF90913E0280913D02892BB9
:1012000080933E0280914C02806180934C024ECFCD
:1012100080913A02833008F454C010923A0210923E
:101220004B0210924D0280914C0283FB112710F962
:1012300083FFA4C080914C02877F80934C0211E011
:1012400035CF81E00E94E53180913A021F928F9361
:1012500046EBC42E43E0D42E40E0E42EEF92DF9222
:10126000CF928E010F5F1F4F1F930F930E94CE2CC2
:10127000380190E8892E482D930160E081E00E94BA
:10128000832680914B021F928F93EF92DF92CF9231
:101290001F930F930E94CE2C482D93016CE081E0A8
:1012A0000E94832680914C02806880934C0283E0E8
:1012B00080934D020FB6F894DEBF0FBECDBF10E095
:1012C000F5CE80913A028F5F80933A0210924B02E2
:1012D00081E080934D0210E0E9CE40E061E0CE0174
:1012E00001960E94842FCE0101960E946433809360
:1012F0003A024CE061E0CE0101960E94842FCE01BB
:1013000001960E94643380934B0210914B0211238B
:1013100009F4B1C0E0914B02F0E0EE0FFF1FE65C74
:10132000FE4F80818F3F09F49BC080914B02E0917A
:101330004B02F0E0EE0FFF1FE65CFE4F9081890F3D
:10134000808380914B02282F22952F7020933B029F
:1013500030914B023F7030933C0281E090E001C03D
:10136000880F3A95EAF7822B80933D0280914C02D8
:10137000887F866080934C0210E098CE2BEB33E0A0
:1013800040E060E081E00E9483262BEB33E040E008
:101390006CE081E00E94832680914C0280688093FB
:1013A0004C0283E080934D0281CE0E9403330E9461
:1013B000823310924D0210923A0210924B0211E0C9
:1013C00075CE90E1499FA001112447575B4F809152
:1013D0003B02480F511D01E02EE332E060EA84E455
:1013E00092E00E94D11C882309F45FCE109254022F
:1013F0000E9403330E94823380914C028860809364
:101400004C020E947F33833008F451C082E0809305
:101410004D029CCE40914B0220914B0230E0220FB6
:10142000331F265C3E4F99E0499FA00111244E5F77
:101430005F4F01E060EA84E492E00E94D11C8823BF
:1014400009F433CE81E08093390130CE0E9482339B
:1014500010924D0210923A0210924B0210E026CEEA
:10146000E0914B0280914B02F0E0EE0FFF1FE65C33
:10147000FE4F808366CF0E9419322FEB33E040E0AD
:101480006FEF80E00E9483262FEC33E040E06FEFA7
:1014900081E00E94832680914C02806880934C02F8
:1014A00080914C02887F846080934C02FFCD8091B4
:1014B0003A028F5F80933A0281E080934D0210E000
:0214C000F5CD68
:1014C2002F923F924F926F927F928F929F92AF9202
:1014D200BF92CF92DF92EF92FF920F931F93CF931F
:1014E200DF93CDB7DEB762970FB6F894DEBF0FBEBB
:1014F200CDBF6C013A01862E7901FC01108617825C
:10150200848181FFEBC19E012F5F3F4F3D872C8776
:10151200C901A0E8888B998BAA8B9FE3992EF301CE
:10152200582D0E94F032862F662309F4D3C1482D2C
:1015320093012F5F3F4F4F4F653219F03901842ECF
:101542000BC0F901542F0E94F032862F92E0690EEF
:10155200711C811C653229F4B60190E00E94ED2ACB
:10156200DECFB12C00E010E01032A0F48B3269F033
:1015720030F4803259F0833269F410612CC08D321C
:1015820039F0803339F4116026C01260146023C030
:10159200186021C017FD2AC090ED980F9A3078F498
:1015A20016FF06C0AAE0BA9E900D1124B92E13C0F0
:1015B200EAE00E9F900D1124092F10620CC08E32AA
:1015C20021F416FD87C1106406C08C3611F4106830
:1015D20002C0883659F4F301582D0E94F032862F4A
:1015E200FFEF6F1A7F0A8F0A6111BECF982F9F7D7E
:1015F2009554933028F424E0E20EF11C99820FC036
:10160200833631F0833791F0833509F064C027C007
:10161200F7018081898397012E5F3F4F79012888E6
:1016220039884A88AA24A394B12C17C0A7014D5F18
:101632005F4F5F874E87F70120803180428016FF1F
:1016420003C04B2D50E002C04FEF5FEF842DB1017C
:101652000E944D2F5C01EE84FF841F7718C0970112
:101662002D5F3F4F3F872E87F701208031804280D8
:1016720016FF03C04B2D50E002C04FEF5FEF842DE9
:10168200B1010E944D2F5C011068EE84FF8413FDAE
:101692001EC0802F90E0A816B906C8F4B60180E2F9
:1016A20090E00E94ED2A0150F4CFF101542D0E94E6
:1016B200F032862FFFEF2F1A3F0A4F0AB60190E051
:1016C2000E94ED2A0111015021E0A21AB108A114D1
:1016D200B10459F7F5C0843611F0893671F5F70176
:1016E20017FF08C0608171818281938197012C5F0D
:1016F2003F4F09C060817181072E000C880B990B46
:1017020097012E5F3F4F79011F76312E97FF0AC056
:1017120090958095709561957F4F8F4F9F4F312F98
:101722003068332E2AE030E0AE014F5F5F4F0E94F7
:101732007624482E4C85441A4AC0853729F41F7EE8
:10174200A12E2AE030E025C0512F597FA52E8F36D9
:10175200C1F018F4883579F0BDC0803719F08837A8
:1017620021F0B8C0852F8061A82EA4FE0DC09A2D4D
:101772009460A92E09C014FF0AC0A52FA660AA2E44
:1017820006C028E030E005C020E130E002C020E1E0
:1017920032E0F701A7FE08C06081718182819381E6
:1017A200A7014C5F5F4F07C06081718180E090E0CC
:1017B200A7014E5F5F4F7A01AE014F5F5F4F0E94FC
:1017C2007624482E5C85451A8A2D8F77382E36FE70
:1017D2000DC0932D9E7FA92E4B1458F434FE0BC0DE
:1017E20032FC09C0A32DAE7EAA2E05C0142DA32C57
:1017F20003C0142D01C01B2DA4FE0EC0FE01E40D7A
:10180200F11D8081803321F4EA2DE97EAE2E08C0DD
:10181200A2FE05C01E5F04C08A2D867809F01F5FF4
:10182200A3FC11C0A0FE06C0101788F4040DB02E50
:10183200B11A0EC0101760F4B60180E290E00E9467
:10184200ED2A1F5FF7CF101718F4011B02C0B42C4A
:1018520000E0A4FE10C0B60180E390E00E94ED2AF1
:10186200A2FE17C0A1FC03C088E790E002C088E591
:1018720090E0B6010CC08A2D867859F0A1FE02C014
:101882008BE201C080E2A7FC8DE2B60190E00E94EB
:10189200ED2A4B1438F4B60180E390E00E94ED2A61
:1018A200BA94F7CF4A94E1E0F0E0EC0FFD1FE40DAB
:1018B200F11D8081B60190E00E94ED2A4110F2CF25
:1018C200002309F42CCEB60180E290E00E94ED2ABA
:1018D2000150F6CFF6018781908502C08FEF9FEF0E
:1018E20062960FB6F894DEBF0FBECDBFDF91CF91E7
:1018F2001F910F91FF90EF90DF90CF90BF90AF902C
:101902009F908F907F906F904F903F902F9008956F
:101912006F927F928F92DF92EF92FF920F931F93BB
:10192200CF93DF93CDB7DEB76E970FB6F894DEBFD5
:101932000FBECDBF00914D02011151C00E9419325C
:1019420060E081E00E942D2DCE0141960E94E1309F
:101952008E89FF24F394F80E1D898F89EE24E39477
:10196200E80ED88C25E831E040E06FEF80E00E947D
:101972008326812F90E0FC013197E730F10508F4CE
:1019820045C01F92DF921F92EF921F92FF9286E94B
:1019920091E0A0E0AF939F938F93CE0101967C01DB
:1019A2009F938F930E94CE2C0FB6F894DEBF0FBE8A
:1019B200CDBF970140E86FEF81E00E94832680E06F
:1019C2000E94D43260E081E00E942D2D80914C0271
:1019D200806880934C0281E080934D0205C00E9492
:1019E200A532811117C000E0802F6E960FB6F894D1
:1019F200DEBF0FBECDBFDF91CF911F910F91FF9040
:101A0200EF90DF908F907F906F900895EC5AFF4F88
:101A12000C948A320E94FB130E945C33882319F3D0
:101A22009DEF980F9230F8F2813009F4EFC00E94D6
:101A32005C33823009F451C00E945C33853009F472
:101A42000FC10E945C33863071F60E94C532882332
:101A520051F210924D020E9482330E94033301E040
:101A6200C3CF1F92DF921F92EF921F92FF9282EFDB
:101A720091E0A0E08FCF1F92DF921F92EF921F9210
:101A8200FF928BED91E0A0E085CF1F92DF921F9233
:101A9200EF921F92FF9289E092E0A0E07BCF1F922B
:101AA200DF921F92EF921F92FF9280E292E0A0E0FB
:101AB20071CF1F92DF921F92EF921F92FF9284ECDE
:101AC20091E0A0E067CF1F92DF921F92EF921F92E8
:101AD200FF928DEA91E0A0E05DCF3E0199E1690EAF
:101AE200711C40E061E0C3010E94842F46E061E086
:101AF200CE0101967C010E94842FCE0141960E9464
:101B0200E13090E8892E2DE631E040E0882DB301E6
:101B12000E94572E892B09F4A0C021E731E040E052
:101B2200882DB3010E94572E892B09F49EC025E708
:101B320031E040E0882DB3010E94572E892B09F431
:101B420097C027E332E040E0882DB3010E94572E70
:101B5200892B09F490C02BE332E040E0882DB301D9
:101B62000E94572E892B09F489C02FE332E040E00E
:101B7200882DB3010E94572E892B09F482C0DD887B
:101B820029E631E040E0882DB3010E94572E892BCF
:101B920011F4DD24D39443E452E060E0C7010E94D3
:101BA20078330E946433082F43E452E060E0CE01B0
:101BB20004960E9478337C010E946433182F682FA8
:101BC200CE014D960E94CC30AE01475F5F4F60E878
:101BD20022E030E0C7010E94F02DC7010E94643369
:101BE20011501C30D8F401500F31C0F4DA94DD8A60
:101BF2000E8B1F8B888FCE0141960E94B82F809149
:101C02004C02887F866080934C02EDCE10924D028A
:101C12000E9403330E94823301E0E6CE0E940F331A
:101C22000E94193225E432E040E06FEF80E00E942A
:101C3200832628E331E040E061E081E00E948326D0
:101C420080914C02887F846080934C0280914C0288
:101C5200806880934C0200E0C7CE52E0D52E9BCF25
:101C62000E94033310924D02ECCE43E0D42E93CF68
:101C720034E0D32E90CF25E0D22E8DCF96E0D92E10
:081C82008ACF87E0D82E87CF3E
:101C8A002F923F924F925F926F927F928F92AF9272
:101C9A00BF92CF92DF92EF920F931F93CF93DF936E
:101CAA0000D000D000D0CDB7DEB73B01882E5A0154
:101CBA0019014115510521F0FA016083718382836C
:101CCA002114310429F0C1010297839708F021C138
:101CDA00E82C6301FFEFCF1ADF0AEF0AF301582D50
:101CEA000E94F032162F862F90E00E949C323C2DE3
:101CFA002D2D5E2D892B19F036018E2CE9CF1D3240
:101D0A0069F4E82C630142E0C40ED11CE11CE32F04
:101D1A00F22F0E94F032162F01E00EC01B3259F446
:101D2A00E82C630182E0C80ED11CE11CE32FF22FDC
:101D3A000E94F032162F00E02114310409F190E1DB
:101D4A002916310429F43FC010E32114310421F18A
:101D5A00F8E02F16310401F154F432E0231631046D
:101D6A0021F5412C512C612C50E4752E4CC04AE0CF
:101D7A002416310439F050E125163104B1F43EC07D
:101D8A00103319F13AE0232E312C4CEC442E542C0A
:101D9A00642C4CE0742E37C098E0292E312C412C4B
:101DAA00512C612C20E1722E2EC060E070E080E0A0
:101DBA0090E89101032C000C440B550B0E94352E20
:101DCA0029013A0120C01033C9F4F6015E2D0E94A0
:101DDA00F0326F7D683509F0B7CFAE2DC601019696
:101DEA00A11DFC015A2F0E94F032162FE2E0CE0EFE
:101DFA00D11CE11C026060E1262E312C412C512CB1
:101E0A00612C88E0782E70E080E090E0DC0191019E
:101E1A00032C000C440B550B29833A834B835C83B8
:101E2A00E0EDE10FEA3060F02FEB210F2A3110F4D8
:101E3A00E9EC05C02FE9210F2A3178F5E9EAE10F2B
:101E4A002E2F30E02215330544F577FD1CC04816C5
:101E5A0059066A067B06A0F029813A814B815C818A
:101E6A00BC01CD010E94AA31DC01CB018E0F911D6C
:101E7A00A11DB11D81309105A10530E8B30710F00D
:101E8A007FEF01C071E0F6015E2D0E94F032162F3D
:101E9A004FEFC41AD40AE40AC3CF202F2170A11429
:101EAA00B104B1F0772349F051E0C51AD108E1082D
:101EBA00F501C082D182E2820BC001FF1DC0F2E0AF
:101ECA00CF1AD108E108F501C082D182E28214C09A
:101EDA0077FF12C0222329F080E090E0A0E0B0E86A
:101EEA0004C08FEF9FEFAFEFBFE722E230E03093FD
:101EFA00FD022093FC0209C0222381F0B095A0952F
:101F0A00909581959F4FAF4FBF4FBC012A2F9B2FB2
:101F1A0012C060E070E020E090E00DC0B7FFF5CF9E
:101F2A0082E290E09093FD028093FC028FEF9FEF94
:101F3A00AFEFBFE7EACF822F26960FB6F894DEBF3F
:101F4A000FBECDBFDF91CF911F910F91EF90DF9020
:101F5A00CF90BF90AF908F907F906F905F904F908F
:061F6A003F902F90089546
:101F7000EF92FF920F931F93CF93DF93CDB7DEB70E
:101F800060970FB6F894DEBF0FBECDBF10914D0223
:101F9000113009F464C088F1123079F010E0812F1B
:101FA00060960FB6F894DEBF0FBECDBFDF91CF9124
:101FB0001F910F91FF90EF90089540913A0250E0E9
:101FC000440F551F440F551F440F551F47575B4F74
:101FD00008E02BE332E060EA84E492E00E94D11C46
:101FE0008823E1F280913A02803308F4AAC010926B
:101FF0003A0210924D0211E0D2CF09E02BE332E019
:1020000040E050E060EA84E492E00E94C91988232D
:1020100029F280913B0281117FC080913C028111A5
:102020007BC080913D02811177C080913E02811179
:1020300073C080913F0281116FC080914002811175
:102040006BC080914102811167C080914202811171
:1020500063C08091430281115FC011E0A0CF409125
:102060003A0229E0429FA001112409E02BE332E06B
:1020700060EA84E492E00E94D11C882309F48ECFA8
:1020800080913A0287FD54C0E0913A02F0E0EE0FF1
:10209000FF1FE65CFE4F1082E0913A02F0E0EE0F87
:1020A000FF1FE65CFE4F11820E94193200913A0236
:1020B00084E6089F80011124000F012F001F110BDF
:1020C0001F930F9387E693E0A0E0AF939F938F93C6
:1020D000CE0101967C019F938F930E94CE2C85E2C6
:1020E000888B970140E860E080E00E94832641E011
:1020F00064E6802F0E94582380913A028F5F80937C
:102100003A0280914C02806880934C020FB6F8949A
:10211000DEBF0FBECDBF42CFEBE3F2E084E492E03E
:1021200011928E179F07E1F781E080934D0237CF20
:1021300010923A0210924D0282E080934D0210E01C
:102140002ECFE0913A02F0E0EE0FFF1FE65CFE4F6B
:1021500011820E94193280913A0224E6829FC001C6
:10216000112460E370E00E94F5307B01CB019927D8
:102170009F938F9389E793E0A0E0AF939F938F9312
:102180008E010F5F1F4F1F930F930E94CE2C85E28D
:10219000888B980140E860E080E00E94832641E05F
:0621A00064E68E2DA7CFBE
:1021A6000F931F93CF93DF9380911F018770823027
:1021B60009F473C0E8F4882309F448C0813009F0B3
:1021C6003FC080913A020E94692F80933A02809123
:1021D6003A028F3F09F4BFC080911F01887F826059
:1021E60080931F0180E0DF91CF911F910F91089599
:1021F600833009F47AC0843019F540913A02F9E047
:102206004F9FA001112423E065E08BE392E00E943A
:1022160077318823A9F0809116018F5F809316018C
:1022260080911601823008F496C0109216018091B2
:102236001F01887F80931F0110923A0281E001C03E
:1022460080E0DF91CF911F910F9108959091F70251
:10225600E091F102F0E0EE0FFF1FE65CFE4F918386
:102266002091F60230E0220F331FF901E65CFE4FA3
:102276004181941708F48AC040911F01487F43604A
:1022860040931F0110923A02F901E65CFE4F9183DA
:10229600DF91CF911F910F91089540913A0229E065
:1022A600429FA001112421E061E08BE392E00E94AD
:1022B6008831882329F2E0913B02EE2329F08091B0
:1022C600F602E81709F469C080913A028F5F80939D
:1022D6003A0280911F01887F816080931F0180E010
:1022E600DF91CF911F910F91089580911601811171
:1022F6003AC0E091F602E0933A02F0E0EE0FFF1FDB
:10230600E65CFE4F818180933B020CE312E0C8EF4E
:10231600DFEF0E948132DC01CB010C2E04C0B695A2
:10232600A795979587950A94D2F7F8012081622F91
:10233600682B61938F012896C831D10551F780919A
:102346001F01887F846080931F0180E0DF91CF9119
:102356001F910F91089580911F01887F836080935C
:102366001F0180E06ECF80911601813071F6E091F9
:10237600F102E0933A028091F70280933B02F0E08B
:10238600EE0FFF1FE65CFE4F8183BFCF40911F011A
:10239600487F416040931F0175CFA0913A02F0E05B
:1023A600B0E0AA0FBB1FA65CBE4FEE0FFF1FE65C98
:1023B600FE4F11969C918181981708F485CFA091C4
:1023C6003A02B0E0AA0FBB1FA65CBE4F11968C91D5
:0423D60081837ACFB6
:1023DA00EF92FF920F931F93CF938091F30282386B
:1023EA0009F483C08638E1F098E7980F9230C0F07C
:1023FA00843869F0873809F47EC08538E1F1C0E095
:10240A008C2FCF911F910F91FF90EF90089580919B
:10241A00F402811105C08091F502882309F4A2C053
:10242A000E940032882359F381E88093C7021092F0
:10243A00C8020E949A2E1092150180E496E0A0E04C
:10244A00B0E08093100190931101A0931201B09310
:10245A0013010E940D3260930C0170930D01809359
:10246A000E0190930F01C1E08C2FCF911F910F9114
:10247A00FF90EF90089580911F0183FBCC27C0F94C
:10248A0083FD85C080911F0186FB992790F986FFFD
:10249A0055C081E080933B0291E0E091F102F0E0C7
:1024AA00EE0FFF1FE65CFE4F91839CE3E92E92E05C
:1024BA00F92E08EF1FEF0E948132DC01CB01002EBA
:1024CA0004C0B695A795979587950A94D2F7F70110
:1024DA0081937F01085F1F4F0831110561F78091D1
:1024EA001F01886080931F018BCF0E9418248823C4
:1024FA0009F485CFA0CF8091F40290914B02891301
:10250A0080934B028091F50290910B01891380937D
:10251A000B0180910B01803170F110920B018091B7
:10252A004B02833070F010924B02809117018C7F1E
:10253A008093170110921501C1E062CF10923B02FD
:10254A00ACCF80914B028F5F80934B028091170131
:10255A008C7F8160809317016091F10288E00E946C
:10256A00792EE8CF6091F10288E00E94792E1092CC
:10257A001501C1E045CF809117018C7F826080935D
:10258A0017016091F10288E00E94792ED3CF409121
:10259A00F102F9E04F9FA001112423E065E08BE3EB
:1025AA0092E00E947731882309F429CF0E94C93129
:1025BA001092150180911F01877F80931F0180E48B
:1025CA0096E0A0E0B0E08093100190931101A093EF
:1025DA001201B09313010E940D3260930C017093A3
:1025EA000D0180930E0190930F010E94D12F8093C9
:0625FA000001C1E005CF65
:102600000F931F93CF93DF93CDB7DEB760970FB6CD
:10261000F894DEBF0FBECDBF80910001882309F181
:10262000809128018823B9F080912801813069F1D7
:10263000809128018230C1F1809128018330B1F06E
:1026400060960FB6F894DEBF0FBECDBFDF91CF917D
:102650001F910F9108951092270181E08093280126
:10266000E3CF109227010E94E215EACF0E94433384
:10267000882331F30E942133809127018F5F80935B
:10268000270181E080932801DBCF809127010E9400
:10269000692F80932701809127018F3F09F470C033
:1026A00082E080932801C4CF4091270189E0489FB0
:1026B000A001112420E062E084E291E00E948831D0
:1026C000882309F4B9CF809125018823A9F2E091EC
:1026D0002701F0E0EE0FFF1FE65CFE4F81818823AB
:1026E00059F2E0912701F0E0EE0FFF1FE65CFE4F8C
:1026F0008181813009F20E941932809124011F9258
:102700008F938DE293E0A0E0AF939F938F938E0120
:102710000F5F1F4F1F930F930E94CE2C980140E82C
:1027200060E080E00E948326E0912701F0E0EE0F58
:10273000FF1FE65CFE4F0FB6F894DEBF0FBECDBFA5
:102740008181823011F1E0912701F0E0EE0FFF1F4F
:10275000E65CFE4F8181843051F1E0912701F0E089
:10276000EE0FFF1FE65CFE4F8181833091F183E025
:102770008093280180914C02806880934C0260CF46
:10278000109227011092280153CF24E130E040E05D
:1027900050E064E670E080E090E00E9472272BE356
:1027A00033E040E060E081E00E948326E0CF24E156
:1027B00030E040E050E062E370E080E090E00E94B2
:1027C000722726E433E040E060E081E00E94832647
:1027D000CECF24E130E040E050E064E670E080E0FD
:1027E00090E00E94722726E533E040E060E081E05F
:0627F0000E948326BCCF0D
:1027F6000F93CF930E944231C82F811103C0CF910E
:102806000F9108950E947F33811152C001E020E1AB
:1028160049E651E060E08C2F0E94362A8111EFCF05
:102826002CE04DE651E060E08C2F0E94362A8111A3
:10283600E6CF28E041E751E060E08C2F0E94362A7F
:102846008111DDCF2FE045E751E060E08C2F0E943B
:10285600362A8111D4CF2BE049E751E060E08C2F76
:102866000E94362A8111CBCF27E04DE751E060E088
:102876008C2F0E94362A8111C2CF2EE041E851E00A
:1028860060E08C2F0E94362A8111B9CF20E046E005
:102896006DE08C2F0E946E2C65E08C2F0E94E92F34
:1028A6008111ADCF61E08C2FCF910F910C94013047
:1028B60002E029E044E151E060E08C2F0E94362AD4
:1028C60081119DCF20E146E151E060E08C2F0E940E
:1028D600362A811194CF2CE048E151E060E08C2F3C
:1028E6000E94362A81118BCF28E04AE151E060E050
:1028F6008C2F0E94362A811182CF2FE04CE151E0C5
:1029060060E08C2F0E94362A811179CF2BE04EE1B0
:1029160051E060E08C2F0E94362A811170CF27E0AB
:1029260040E251E060E08C2F0E94362A811167CF89
:102936002EE042E251E060E08C2F0E94362A81119F
:102946005ECF2AE044E251E060E08C2F0E94362AF6
:10295600811155CF26E046E251E060E08C2F0E94BF
:10296600362A81114CCF65E08C2F0E94E92F811108
:1029760046CF61E08C2F0E940130811140CF42E0AA
:1029860063E08C2F0E94082C811139CF42E062E06F
:102996008C2F0E94BF27811132CF0E947F3389304E
:1029A60079F485E080934E0202E020E040914E02E9
:1029B6006DE08C2F0E946E2C882309F46DCF1FCFFB
:1029C6000E947F338A3021F083E080934E02ECCF61
:0829D60086E080934E02E8CF79
:1029DE00DF92EF92FF920F931F93CF93DF93CDB7BA
:1029EE00DEB768970FB6F894DEBF0FBECDBFCE012F
:1029FE0001967C0180E1F70111928A95E9F78091A9
:102A0E004D02882361F10E94721E0E945C33182FC2
:102A1E000E94A5328823A1F08DEF810F823080F0C5
:102A2E00113009F463C0123009F466C0153009F490
:102A3E00BCC0163009F453C00E944333811116C036
:102A4E0080E068960FB6F894DEBF0FBECDBFDF9163
:102A5E00CF911F910F91FF90EF90DF90089584E03A
:102A6E000E94D43281E080934D02CDCF0E94A532D8
:102A7E00882331F30E9421330E9419320E940F33B2
:102A8E00CE0141960E94E130DA880B891C8929E437
:102A9E0031E040E060E080E00E9483261F92DF92EA
:102AAE001F920F931F921F938AE591E0A0E0AF93C0
:102ABE009F938F93FF92EF920E94CE2C970140E846
:102ACE006FEF81E00E94832680914C028068809394
:102ADE004C020FB6F894DEBF0FBECDBFB1CF0E9431
:102AEE00C532882309F4A8CF10924D020E9482337A
:102AFE000E94033381E0A5CF44E061E0C7010E944C
:102B0E00842FCE0141960E94E13048E251E060E010
:102B1E00C7010E9478330E946433082F48E251E0C7
:102B2E0060E0CE0104960E9478330E946433182F21
:102B3E0048E251E060E0CE0107960E9478330E9491
:102B4E0064338C3398F41C3388F4083178F48A8B10
:102B5E001B8B0C8BCE0141960E94B82F80914C029C
:102B6E00887F866080934C0280E06BCF0E940F338B
:102B7E000E9419322AE231E040E06FEF80E00E94BD
:102B8E00832628E331E040E06FEF81E00E94832648
:102B9E0080914C02806880934C0280914C02887F19
:102BAE00846080934C0280E04CCF10924D020E94C4
:062BBE00033380E046CF66
:102BC4006F927F928F92DF92EF92FF920F931F93F7
:102BD400CF93DF93CDB7DEB768970FB6F894DEBF17
:102BE4000FBECDBF0E9419320E940F3380E00E94B5
:102BF400692F8F3F09F476C0CE0141960E94E130DF
:102C04000E944333811111C068960FB6F894DEBF59
:102C14000FBECDBFDF91CF911F910F91FF90EF9029
:102C2400DF908F907F906F9008950E942133CE01A2
:102C340041960E94E130DA88EB88FC882E892F5F68
:102C44003F893F5F488DED898E2F90E0FC013197DD
:102C5400E730F10508F442C01F924F931F923F934F
:102C64001F922F9386E792E0A0E0AF939F938F93F8
:102C74008E010F5F1F4F1F930F930E94CE2C0FB630
:102C8400F894DEBF0FBECDBF380190E8892E482DE1
:102C940093016FEF80E00E9483261F92DF921F92C0
:102CA400EF921F92FF9287E193E0A0E0AF939F938E
:102CB4008F931F930F930E94CE2C482D93016FEF97
:102CC40081E00E94832680914C02806880934C02AC
:102CD4000FB6F894DEBF0FBECDBF96CFEA5BFF4FB1
:102CE4000C948A3223E532E040E06FEF80E00E94EA
:102CF400832624E632E040E06FEF81E00E948326E1
:102D040080914C02806880934C027ECF1F924F9337
:102D14001F923F931F922F9389EE92E0A0E0A5CFDC
:102D24001F924F931F923F931F922F9382ED92E035
:102D3400A0E09BCF1F924F931F923F931F922F931C
:102D44008BEB92E0A0E091CF1F924F931F923F93A1
:102D54001F922F9384EA92E0A0E087CF1F924F93B3
:102D64001F923F931F922F938DE892E0A0E07DCFB6
:102D74001F924F931F923F931F922F9380E093E0F3
:042D8400A0E073CF89
:102D8800EF92FF920F931F93CF93DF93CDB7DEB7E8
:102D980060970FB6F894DEBF0FBECDBFF82E109126
:102DA8004D02112321F10E94A532182F81110EC066
:102DB800812F60960FB6F894DEBF0FBECDBFDF91AE
:102DC800CF911F910F91FF90EF9008950E94152FBA
:102DD8000E945C33882349F09DEF980F923028F0C9
:102DE800813009F49BC08230F9F010E0E1CF0E94F5
:102DF80019320E940F3310923A022DE434E040E079
:102E08006FEF80E00E9483262AE534E040E06FEF10
:102E180081E00E94832680914C02806880934C0256
:102E280081E080934D02C4CF4F2D50E069E070E0FF
:102E3800641B750B161617066CF420E080E090E012
:102E4800FC01E55CFD4F10822F5F822F90E0861712
:102E58009707B4F380913A0209E00F1999E0899F26
:102E6800400D511D11242BE332E060EA84E492E026
:102E78000E94D11C882309F4B8CF80913A0287FDBB
:102E88004BC0F11008C0E0913A02F0E0EE0FFF1FCE
:102E9800E65CFE4F1082E0913A02F0E0EE0FFF1F71
:102EA800E65CFE4F11820E94193200913A0284E6D4
:102EB800089F80011124000F012F001F110B1F9381
:102EC8000F9388E694E0A0E0AF939F938F93CE0191
:102ED80001967C019F938F930E94CE2C85E2888B6C
:102EE800970140E860E080E00E94832641E064E6C4
:102EF800802F0E94582380913A028F5F80933A0274
:102F080080914C02806880934C020FB6F894DEBF23
:102F18000FBECDBF10E04CCF10923A020E9403338F
:0C2F28000E94823310924D0211E042CF53
:102F34006F927F928F92AF92BF92CF92DF92EF9275
:102F4400FF920F931F93CF93DF93FC01568105816A
:102F5400B3805C30A8F00F3198F087E18B1580F4D2
:102F6400A280CBE3CA1568F411811C3358F0609138
:102F74009A0270919B0280919C0290919D028DC057
:102F8400A28011817781772309F495C030E080E035
:102F940090E0DC010DC06EE6C62EDD24D394E12C56
:102FA400F12C8C0D9D1DAE1DBF1D3F5F371779F0B1
:102FB400332389F34DE6C42EDD24D394E12CF12C84
:102FC4008C0D9D1DAE1DBF1D3F5F3713F1CF5523E3
:102FD400C1F12EE6C22E26E0D22E20E0E22E22E619
:102FE40036E040E05150652E712CDFEF6D1A7D0AFA
:102FF400072C000C8808E82DE301CE59D94FEF4F78
:103004003E018E2E13C0F6015E2D0E94F032860F13
:10301400911DA11DB11DDFEFCD1ADD0AED0A2F5F51
:103024003F4F4F4F26153705480559F0772359F37D
:10303400F901542F0E94F032860F911DA11DB11D7C
:10304400EACF9C01AD01200F311D411D511D60E8E7
:1030540071E581E090E00E94AA316B017C012B2D87
:1030640030E0A0E1BEE00E94BA31AB01BC01410FE7
:10307400511D611D711DECE3AE9EE0011124CE01D2
:10308400DD0FAA0BBB0B840F951FA61FB71FBC0136
:10309400CD016C0D7D1D8E1D9F1DDF91CF911F9164
:1030A4000F91FF90EF90DF90CF90BF90AF908F90F3
:0E30B4007F906F90089580E090E0DC0188CF5F
:1030C200EF92FF920F931F93CF93DF93CDB7DEB7AB
:1030D20060970FB6F894DEBF0FBECDBF10914D02C0
:1030E200112309F44BC00E94A53281110FC010E0D8
:1030F200812F60960FB6F894DEBF0FBECDBFDF9171
:10310200CF911F910F91FF90EF9008950E94152F7C
:103112000E945C33882359F39DEF980F923038F365
:10312200813021F1823019F7EBE3F2E0119222E0D3
:10313200E334F207D9F740913A0250E0440F551FA9
:10314200440F551F440F551F47575B4F08E02BE3B1
:1031520032E060EA84E492E00E94D11C882339F2D2
:1031620080913A02803338F110923A020E9403337E
:103172000E94823310924D0211E0BACF0E9419329E
:103182000E940F3310923A022DE434E040E06FEFD8
:1031920080E00E9483262AE534E040E06FEF81E080
:1031A2000E94832680914C02806880934C0281E0C9
:1031B20080934D029DCFE0913A02F0E0EE0FFF1FA7
:1031C200E65CFE4F11820E94193280913A0224E697
:1031D200829FC001112460E370E00E94F5307B0100
:1031E200CB0199279F938F9388E694E0A0E0AF9359
:1031F2009F938F938E010F5F1F4F1F930F930E9418
:10320200CE2C85E2888B980140E860E080E00E9445
:10321200832641E064E68E2D0E94582380913A0273
:103222008F5F80933A0280914C02806880934C02B7
:0C3232000FB6F894DEBF0FBECDBF59CF21
:10323E00CF92DF92EF92FF92CF93DF93EA0120E8D5
:10324E0031E541E050E00E94352E69017A0120E11E
:10325E003EE040E050E00E94352E2B832CE330E020
:10326E0040E050E00E94352E2A836983C601D701C3
:10327E000097A105B10509F445C020E009C04DE64F
:10328E0051E060E070E0841B950BA60BB70B2F5F2F
:10329E00222309F443C08D3631E09307A105B10511
:1032AE0070F72F838F319105A105B105A8F16CE15F
:1032BE002FE1C22ED12CE12CF12C21E00BC0272FB7
:1032CE0030E040E02E59394F4F4FF901542F0E94F4
:1032DE00F032272F8C199D09AE09BF09C62ED12CAD
:1032EE00E12CF12C71E0720F8C159D05AE05BF051A
:1032FE0030F72E838D83DF91CF91FF90EF90DF908B
:10330E00CF9008951F821E821D82DF91CF91FF9074
:10331E00EF90DF90CF90089520E0EBCF8E3631E026
:10332E009307A105B10528F04EE651E060E070E08C
:10333E00AACF1F828F319105A105B105D0F26DE1A3
:10334E003FE1C32ED12CE12CF12C21E00BC0272F15
:10335E0030E040E02259394F4F4FF901542F0E946F
:10336E00F032272F8C199D09AE09BF09C62ED12C1C
:10337E00E12CF12C71E0720F8C159D05AE05BF0589
:04338E0030F7B7CF8E
:10339200CF92DF92EF92FF920F931F93CF93DF931F
:1033A200EC01162F6A0179018091C4028C7090E0C1
:1033B20095958795959587958230910509F458C022
:1033C2008330910539F1019769F00E9488338111A8
:1033D20076C0DF91CF911F910F91FF90EF90DF9018
:1033E200CF90089588810E94822D8093C30280919C
:1033F200C3028F3F09F05FC08091C402881F8827F3
:10340200881F09F066C09091C402937F98609093E0
:10341200C402DFCF6D816623D9F08091C3028F3F52
:10342200B9F4F12C04C08091C3028F3F89F48B81DF
:103432009C819C012F5F3F4F3C832B8361504F2D1A
:103442000E94CC2D8093C302F3946D81F61658F33B
:103452000E9468330E946C338091C4028F778093FC
:10346200C4028091C402837F8093C40281E0B1CF01
:1034720019818A819091C3029F3F69F40E948C3026
:103482008093C3028091C3028F3F29F4812F0E944F
:103492008C308093C3028881816088838091C402CA
:1034A20080688093C4028091C402837F8460809389
:1034B200C40280E08ECF0E94683380E08ACF0E94EF
:1034C20085331E7F1883DA82C982FC82EB820D83E8
:1034D200EACF8091C4028C608093C40280E079CFED
:1034E2000F93CF930E944231C82F811103C0CF9115
:1034F2000F91089503E029E04AE953E060E00E9459
:10350200362A8111F4CF20E14CE953E060E08C2FA0
:103512000E94362A8111EBCF2CE04EE953E060E0A5
:103522008C2F0E94362A8111E2CF28E040EA53E034
:1035320060E08C2F0E94362A8111D9CF2FE042EA17
:1035420053E060E08C2F0E94362A8111D0CF2BE00D
:1035520044EA53E060E08C2F0E94362A8111C7CFE3
:1035620027E046EA53E060E08C2F0E94362A811160
:10357200BECF2EE048EA53E060E08C2F0E94362A4C
:103582008111B5CF2AE04AEA53E060E08C2F0E9415
:10359200362A8111ACCF26E04CEA53E060E08C2F52
:1035A2000E94362A8111A3CF65E08C2F0E94E92F59
:1035B20081119DCF61E08C2F0E940130811197CF44
:1035C20080914C0285FF26C020E04CE06DE08C2FFC
:1035D2000E946E2C81118BCF43E064E08C2F0E94FD
:1035E2008A25811184CF43E063E08C2F0E94082C4E
:1035F20081117DCF43E062E08C2F0E94BF278111B1
:1036020076CFC43409F073CF80914C0287608093E7
:0C3612004C026DCF03E020E046E0D8CF72
:10361E001F920F920FB60F9211240BB60F922F938B
:10362E003F938F939F93AF93BF93EF93FF938091AD
:10363E00F0028B30B8F5E091F00280919C00F0E042
:10364E00EE52FD4F80838091DD0285FF1CC0A0915C
:10365E00F002E091D102B0E0AE52BD4FF0E0EE517B
:10366E00FD4F9C9180819817B1F18091C602865AC8
:10367E008093C6021092D1021092F0028091DD0268
:10368E008F7D8093DD028091F0028F5F8093F00238
:10369E008BE08EBD1FBC8AE590E09BBD8ABD87B7CF
:1036AE00806187BF80916A008F7E80936A008091CF
:1036BE006A00806280936A00FF91EF91BF91AF9193
:1036CE009F918F913F912F910F900BBE0F900FBE38
:1036DE000F901F9018952091D10230E08091E30257
:1036EE0090E00197281739070CF1E2EDF2E08DED2D
:1036FE0092E011928E179F07E1F7E2EEF2E08DEE67
:10370E0092E011928E179F07E1F71092D10210925C
:10371E00C6021092F0028091DD028F778093DD0257
:10372E008091DD028F7D8093DD02ADCF8091D1023D
:10373E008F5F8093D102E091D102F0E0EE51FD4F08
:08374E00808180939C009FCF55
:103756002FB784FD5EC0F894909162009F77909396
:1037660062002FBF9FB785FD5EC0F894DD989FBFAE
:103776002FB786FD5EC0F894909162009F7B909370
:1037860062002FBF2FB787FD5EC0F894909162004C
:103796009D7F909362002FBFDC9ADC982FB780FD47
:1037A6005EC0F894909162009F77909362002FBF5D
:1037B6009FB781FD5EC0F894DD989FBF2FB782FD4D
:1037C60014C0F894909162009F7B909362002FBF83
:1037D6009FB783FF14C0F894809162008260809343
:1037E60062009FBFDC9ADC980895F894909162007D
:1037F6009064909362002FBF9FB783FDECCFF8943F
:10380600809162008D7F809362009FBFDC9ADC9876
:103816000895F894909162009068909362002FBF8B
:103826009FB785FFA2CFF894DD9A9FBF2FB786FF7B
:10383600A2CFF894909162009064909362002FBF9B
:103846002FB787FFA2CFF894909162009260909371
:1038560062002FBFDC9ADC982FB780FFA2CFF894C6
:10386600909162009068909362002FBF9FB781FF8E
:0A387600A2CFF894DD9A9FBFA1CF06
:103880001F93CF93DF93FB0167FF46C0EF77FF27BE
:10389000F16032972081672F772730E0622373230E
:1038A000672B49F1282F30E0F901E658FD4F908150
:1038B0009923E9F010828F5F182F106C809190028D
:1038C000E901219690E08C179D0709F454C0612FFF
:1038D0008AE892E00E94BD328823C9F1812F90E0EE
:1038E0009E012F7333278217930709F44EC0DF918F
:1038F000CF911F910895282F30E0F901E658FD4F30
:1039000090819F5F90839081953670F084E68083EC
:10391000DF91CF911F910895FF27E236F10509F05D
:10392000B8CFE0E2F0E0B6CF9081943639F19081E3
:103930009130E9F68F5F182F1F738093900282E316
:1039400080937902112399F2E9012196C0CF812F4A
:1039500090E09E012F7333278217930741F620E0F2
:1039600030E0A90168EC70E080E090E0DF91CF9159
:103970001F910C94722710929002A9CF8F5F8F73C2
:10398000182F1064E9012196A2CF20E030E0A901B0
:1039900064E670E080E090E0DF91CF911F910C949D
:0239A00072278C
:1039A2008F929F92AF92BF92CF92DF92FF920F932C
:1039B2001F93CF93DF931F92CDB7DEB71091C4024E
:1039C2001370113009F457C069015A01F62E4C01E7
:1039D2001130B8F1123079F010E0812F0F90DF91A1
:1039E200CF911F910F91FF90DF90CF90BF90AF903A
:1039F2009F908F9008956091C1020E945221882366
:103A020059F39091C102F4018581891B8583882332
:103A120009F449C02091C10281819281820F911DD6
:103A2200928381839091C1028091C202890F809317
:103A3200C2028091C4028C7F81608093C40210E034
:103A4200CCCF0E948833882339F20E9485336F2DB0
:103A52006E7FF4016083B282A182D482C382058325
:103A62001092C1021092C2028091C4028C7F8160C6
:103A72008093C402B2CFFC0121812F712983398145
:103A820020E2231B2093C10285819091C1028917F4
:103A920010F48093C1028091C4028C7F8260809373
:103AA200C40210E09ACF0E946C331092C20280913D
:0C3AB200C4028C7F8093C40211E08FCF0F
:103ABE00DF92EF92FF920F931F93CF93DF936623C4
:103ACE0009F481C0D62EEC01F12C84EAE82E04E82C
:103ADE00E09274008091740087FFFCCF809171009A
:103AEE00883099F588810E949E2F482F888180FF0B
:103AFE0037C06981662309F464C04F3F09F05FC087
:103B0E0010E002C08F3FB1F48A819B819C012F5F30
:103B1E003F4F3B832A836150412F0E94CC2D1F5F64
:103B2E006981161778F3F394DF1409F447C02496CD
:103B3E008F3F71F294E990937400DF91CF911F91B2
:103B4E000F91FF90EF90DF9008958091710080317A
:103B5E0049F2409171004F3F29F2888180FDC9CF13
:103B6E008981882371F14F3F51F521E0EA81FB8174
:103B7E009FEF920FE90FF11D30819091740097FF26
:103B8E00FCCF30937300009374009091740097FFF4
:103B9E00FCCF90917100983249F08091710099811B
:103BAE00291708F68F3F31F62F5FE0CF998129173D
:103BBE00D8F3F394DF1419F024968ACF482F842F6C
:0A3BCE00B9CF842FB0CF8FEFB5CF31
:103BD800EF92FF920F931F93CF93DF93CDB7DEB78A
:103BE80060970FB6F894DEBF0FBECDBF0E94A53216
:103BF8008823B1F080913A0287FD20C040913A02B3
:103C080089E0489FA00111244E5F5F4F02E02BE33B
:103C180032E060EA84E492E00E94C919811112C07E
:103C280080E060960FB6F894DEBF0FBECDBFDF917F
:103C3800CF911F910F91FF90EF90089510923A0243
:103C480081E0EFCFE0913A02F0E0EE0FFF1FE65C73
:103C5800FE4F80913B028083E0913A02F0E0EE0F44
:103C6800FF1FE65CFE4F80913C0281830E9419325F
:103C780000913A0294E6099F80011124000F012F58
:103C8800001F110B1F930F9388E893E0A0E0AF93F8
:103C98009F938F93CE0101967C019F938F930E94EF
:103CA800CE2C85E2888B970140E860E080E00E9496
:103CB800832641E064E6802F0E94582380913A02CF
:103CC8008F5F80933A0280914C02806880934C0207
:0C3CD8000FB6F894DEBF0FBECDBFA2CF28
:103CE4000F93CF930E944231C82F811103C0CF910B
:103CF4000F91089502E029E044E151E060E00E9460
:103D0400362A8111F4CF20E146E151E060E08C2FA6
:103D14000E94362A8111EBCF2CE048E151E060E0AB
:103D24008C2F0E94362A8111E2CF28E04AE151E02B
:103D340060E08C2F0E94362A8111D9CF2FE04CE10C
:103D440051E060E08C2F0E94362A8111D0CF2BE005
:103D54004EE151E060E08C2F0E94362A8111C7CFDA
:103D640027E040E251E060E08C2F0E94362A811166
:103D7400BECF2EE042E251E060E08C2F0E94362A52
:103D84008111B5CF2AE044E251E060E08C2F0E941B
:103D9400362A8111ACCF26E046E251E060E08C2F58
:103DA4000E94362A8111A3CF65E08C2F0E94E92F4F
:103DB40081119DCF61E08C2F0E940130811197CF3A
:103DC40024E043E06DE08C2F0E946E2C81118FCF94
:103DD40042E063E08C2F0E94082C811188CF42E0DE
:0C3DE40062E08C2FCF910F910C94BF2750
:103DF0000E944231813009F45DC0833029F0843063
:103E000029F1853091F108958091B1029091B2022B
:103E1000A091B3020396A11DFC015A2F0E944732C4
:103E200061157105810561F0613596E0790790E0D3
:103E3000890731F06093B1027093B2028093B302AC
:103E40008091B00280648093B00208959091B10295
:103E50008091B2025091B302E92FF82F0E944732AD
:103E600061157105810501F7EBCF8091B102909149
:103E7000B202A091B3020696A11DFC015A2F0E9426
:103E80004732A82FCB010696A11DFC015A2F0E9494
:103E90004732613596E0790790E0890789F00E9402
:103EA0000F338091B1029091B202A091B3020696B5
:103EB000A11DB2CF8091B00280628093B0020895BC
:103EC0006093B1027093B2028093B3028091B0020A
:103ED0008F7E8093B0028091B0028F778093B00282
:103EE0008091B0028F7B8093B0028091B0028F7D71
:063EF0008093B00208956A
:103EF6008091F002813009F45BC08091F00283303A
:103F060008F470C08091DD0287FF16C02091C602BA
:103F16008091E0029091E102820F911D2BE02EBD6F
:103F26001FBC9BBD8ABD87B7806187BF8091DD02BC
:103F36008C7F81608093DD025091D20280E8850FEC
:103F4600823008F44FC08091F0028C3008F04AC0ED
:103F56004091D302E42FF0E0EF52FD4F60813FEF36
:103F6600340F09F441C0E3EDF2E0252F90E080E044
:103F760001C0219192278F5F3813FBCF691332C09E
:103F86005093F1028DEF840F8093F202882371F033
:103F9600E4EDF2E0A3EFB2E04450842F90E08B52C0
:103FA6009D4F21912D93E817F907D9F781E00895E0
:103FB6008091C6028823B1F02091C6028091E0026A
:103FC6009091E102820F911D2BE02EBD1FBC9BBD7F
:103FD6008ABD87B7806187BF8091DD028C7F816053
:0C3FE6008093DD0280E0089590E0C8CFD9
:103FF2001F920F920FB60F9211240BB60F922F93AE
:104002003F934F935F936F937F938F939F93AF935E
:10401200BF93EF93FF931EBC1DBC1CBC87B78F7E62
:1040220087BF8091DD028370E9F08091DD028370A9
:104032008230E1F18091DD028370813009F1FF91DC
:10404200EF91BF91AF919F918F917F916F915F910E
:104052004F913F912F910F900BBE0F900FBE0F907B
:104062001F9018950E947B1F81111AC0E2EDF2E0A9
:10407200119282E0ED3DF807D9F71092F002DFCFFE
:104082001092F00280919B0085FFFCCF8091E202AA
:1040920080939C008091DD0280628093DD02CFCF0D
:1040A2008091DD0280618093DD02E0CF8091DD02AC
:1040B20087FFC5CF2091C6028091E0029091E10274
:1040C200820F911D2BE02EBD1FBC9BBD8ABD87B701
:1040D200806187BF8091DD028C7F81608093DD02E9
:0240E200AECF5F
:1040E4000E949B3383B7886283BF83B7846083BF96
:1040F40087ED81BF12BE0E9431320E94592D109269
:10410400980083E28093990080919A00886080935C
:104114009A0080919A00806180939A0080919D001A
:104124008F7B80939D0080919D008F7B80939D0069
:1041340080919B008D7F80939B0080919A008B7F60
:1041440080939A0080919D00846080939D0080916B
:104154009D00826080939D0080919D00877F809365
:104164009D0080919D008F7D80939D0080919D0096
:104174008F7E80939D0080919A00806880939A003E
:104184000E94B8230E94B8230E94D22B0E9431308F
:104194000E9425320E94F3310E945C320E94BA2EA2
:1041A4000E94663187B7826087BF78940E949933F2
:1041B4000E94D92E0E94292B0E9431250E94D424CA
:0241C400F5CF35
:1041C60010C00E94E23258F00E94DB3240F029F41F
:1041D6005F3F29F00C942D3351110C94EA320C9464
:1041E6008B330E94132E68F39923B1F3552391F371
:1041F600951B550BBB27AA2762177307840738F050
:104206009F5F5F4F220F331F441FAA1FA9F335D0AC
:104216000E2E3AF0E0E832D091505040E695001C60
:10422600CAF72BD0FE2F29D0660F771F881FBB1F1A
:10423600261737074807AB07B0E809F0BB0B802DF8
:10424600BF01FF2793585F4F3AF09E3F510578F024
:104256000C942D330C94EA325F3FE4F3983ED4F38A
:10426600869577956795B795F7959F5FC9F7880FF8
:10427600911D9695879597F90895E1E0660F771F4A
:10428600881FBB1F621773078407BA0720F0621BDB
:0E429600730B840BBA0BEE1F88F7E0950895AA
:1042A400EF92FF920F931F93CF937C01062F80917F
:1042B400C40285FBCC27C0F9F70185FF40C0C1814A
:1042C40082819091C3029F3F69F40E948C30809355
:1042D400C3028091C3028F3F29F48C2F0E948C303B
:1042E4008093C302C091C20210E010C02091C302A7
:1042F4002F3FB1F4F70123813481F901E80FF91F4D
:1043040080810E948C308093C302CF5F2091C202CF
:104314008C2F90E0A801420F511D8417950734F3A8
:104324000E9468338091C4028F7D8093C402C1E0EF
:104334008C2FCF911F910F91FF90EF900895808162
:104344008E7F0E94822D8093C3028091C3028F3F8F
:1043540049F00E9468338C2FCF911F910F91FF90E9
:10436400EF9008958091C40280628093C4028C2FE0
:0C437400CF911F910F91FF90EF900895E2
:1043800080E496E0A0E0B0E08093100190931101EA
:10439000A0931201B09313010E940D3260930C019F
:1043A00070930D0180930E0190930F016091F102C3
:1043B000E62FF0E0EE0FFF1FE65CFE4F80818823C2
:1043C00061F08091F302823069F09DEF980F81E0F7
:1043D000923008F4089580E0089586E00E94792ED6
:1043E00081E008950E94D310811103C08091F302EF
:1043F000ECCF8FEF8093C70287E08093C80281E8FB
:104400008093C902E091F102E093CA02F0E0EE0F5E
:10441000FF1FE65CFE4F81818093CB02E091F602A4
:10442000E093CC02F0E0EE0FFF1FE65CFE4F8181CF
:104430008093CD028091F4028093CE028091F502A8
:104440008093CF020E94D12F809300018093D002ED
:084450000E949A2E81E00895FC
:10445800CF930E94A028DB988FE70E94AB1B0E9495
:104468000B288F3779F10E94F7229091540281E04E
:10447800913009F080E0CF910895823099F1813030
:1044880099F1C0E80E94A028DB988C2F0E94AB1BF2
:1044980080915402813009F43FC0E0915702F0E066
:1044A800E85AFD4FC0810E94A028DB9A8C2F0E94F9
:1044B800AB1B809154028130F1F2809157028F5FDB
:1044C8008093570280915702803280F4809157027E
:1044D8008F7019F78091570282958370833069F63F
:1044E800C0EDD0CFC0E9CECFC0ECCCCF10925702F0
:1044F800C09155020E94A028DB988C2F0E94AB1B0C
:10450800C09156020E94A028DB988C2F8C600E94D4
:10451800AB1B81E0CF91089510925702CF91089577
:10452800CF938091A70285FBCC27C0F985FD08C0F1
:104538000E94883381113DC0C0E08C2FCF9108952F
:1045480062E088EA92E00E945F1D8F3FA9F70E940F
:104558006C3348E060E08EE992E00E94D426EEE9F0
:10456800F2E025EA32E08181982F92959F708F7052
:104578004AE0949F800D1124818331962E173F07BE
:1045880091F780919F02806880939F028EE992E064
:104598000E949A1760939A0270939B0280939C02E0
:1045A80090939D028091A7028F7D8093A702C1E01E
:1045B800C4CF0E94853310929E024EE952E061E01A
:1045C80088EA92E00E9457334EE952E067E08CEAAD
:1045D80092E00E9457338091A70280628093A702DD
:0645E8008C2FCF91089515
:1045EE008FEF91EA0197F1F700C0000080E30E947F
:1045FE0056288FEF95E30197F1F700C0000080E396
:10460E000E94562884E191E00197F1F7000080E3C3
:10461E000E94562898E89A95F1F700C080E20E9411
:10462E00562888E88A95F1F700C00E94A028DB98EA
:10463E0088E20E94AB1B0E94A028DB988CE00E94AF
:10464E00AB1B0E94A028DB9881E00E94AB1B0E944E
:10465E00A028DB9886E00E94AB1B40E062EA76E081
:10466E0080E00E949A2B41E06AE976E080E00E94A9
:10467E009A2B42E062E976E080E00E949A2B43E0BA
:10468E006AE876E080E00E949A2B44E062E876E0E9
:10469E0080E00E949A2B45E06AE776E080E00C9479
:0246AE009A2B45
:1046B000CF92DF92EF92FF920F931F93CF93DF93EE
:1046C000C62F142F682F70E06F5F7F4F072E000CEE
:1046D000880B990B0E94B22A6B017C016C2F70E051
:1046E00080E090E00E94B22A20E030E040EA52E40C
:1046F0000E9470339B01AC01C701B6010E94703368
:104700000E94FE2CCDEC6C9FC12D1124C695C69540
:104710008C2F880F880F8C0F062F081BCC23C9F015
:10472000D0E045E06D2F812F0E945232DF5FCD1324
:10473000F8CF402F6C2F812F0E945232C03170F081
:10474000DF91CF911F910F91FF90EF90DF90CF906D
:104750000895402F60E0812F0E945232CF5F40E0E9
:104760006C2F812F0E945232CF5FC131C1F7E8CF49
:1047700089B7846089BF80916A008F7E80936A00C8
:1047800080916A00806280936A001092DD0210922C
:10479000F0021092D1021092C6021092ED02E2EEE7
:1047A000F2E0119282E0ED3EF807D9F7E2EDF2E097
:1047B0008DED92E011928E179F07E1F72091ED02A7
:1047C00088E6289F90011124205F3B4F40E050E095
:1047D00060E472E48FE090E00E94352E2F5F3F4F3F
:1047E000C901A0E0B0E0880F991FAA1FBB1F880F66
:1047F000991FAA1FBB1F880F991FAA1FBB1F880FD5
:10480000991FAA1FBB1F9C01AD01220F331F441F1C
:10481000551F220F331F441F551F60E070EC88EABC
:1048200090E00E94352E3093E1022093E00208953B
:10483000CF93DF931F92CDB7DEB781E0898340919C
:10484000F10289E0489FA001112428E061E0CE0137
:1048500001960E9477318823D9F06091F102E62F0A
:10486000F0E0EE0FFF1FE65CFE4F80818823A9F089
:104870009091F402891329C08091F502882321F0D8
:104880008091F60281112BC00E94003281110FC06D
:1048900080E00F90DF91CF91089586E00E94792EFD
:1048A0001092150181E00F90DF91CF91089581E87A
:1048B0008093C7021092C8020E949A2E109215018E
:1048C00081E00F90DF91CF91089583E00E94792ECF
:1048D0001092150181E00F90DF91CF91089587E04C
:0C48E0000E94792E1092150181E0D3CFC8
:1048EC00FA01AA27283051F1203181F1E8946F9315
:1048FC006E7F6E5F7F4F8F4F9F4FAF4FB1E03ED0BB
:10490C00B4E03CD0670F781F891F9A1FA11D680F58
:10491C00791F8A1F911DA11D6A0F711D811D911D8B
:10492C00A11D20D009F468943F912AE0269F112400
:10493C003019305D3193DEF6CF010895462F477064
:10494C00405D4193B3E00FD0C9F7F6CF462F4F70BF
:10495C00405D4A3318F0495D31FD4052419302D01D
:10496C00A9F7EACFB4E0A6959795879577956795C3
:10497C00BA95C9F700976105710508959B01AC01C3
:10498C000A2E06945795479537952795BA95C9F7EA
:0C499C00620F731F841F951FA01D08955B
:1049A800CF9380912301813061F1F8F0823059F082
:1049B800833021F40E944833882389F10E94DE0560
:1049C800CF910C94D7310E94A2300E945C33C82F3B
:1049D8000E94483381112DC0C130A1F10E94A53237
:1049E800882361F30E940013E9CF0E94B80F88233F
:1049F80029F381E0809323010E94DE05CF910C9476
:104A0800D7310E94EC1D8823C9F20E94F7320E9418
:104A1800D12F8093000182E080932301CFCF1092A1
:104A28003A020E941B330E94F73282E080932301EE
:104A3800C5CF0E94FD320E943E3383E0809323015C
:104A4800CF9108950E947C33882321F06FEF82E094
:0A4A58000E94792ECF910C940333D5
:104A62008091B802882341F08091B802813071F0C0
:104A72008091B802823009F0089589EB92E00E9499
:104A82003D2C8823C9F31092B802089589EB92E075
:104A92000E943D2C882381F32091B4023091B5020B
:104AA2004091B6025091B7022115310541055105D9
:104AB20081F0A8EEB3E00E943C32623E24E072072D
:104AC2008105910508F122EE34E040E050E00E94B9
:104AD200352E2093BD023093BE024093BF02509305
:104AE200C0020E940D326093B9027093BA028093A1
:104AF200BB029093BC0282E08093B8028091620074
:104B02008E7F80936200089521E030E040E050E023
:024B1200E0CFF2
:104B1400CF93861719F080E0CF910895C42F609148
:104B2400220181E00E943031811122C09091220142
:104B3400809120019817A1F06091220161502DEA23
:104B440036E040E081E00E948326609122016150BA
:104B540081E00E942D2D80912201815080932201B9
:104B640080914C02806880934C0281E0CF9108953B
:104B7400209122014091200130E08C2F90E0840F9D
:104B8400911D0197609122012817390749F081E0AE
:104B94000E9460306091220181E00E942D2DE0CFBF
:104BA4002DEA36E040E081E00E94832660912201F4
:084BB40081E00E942D2DD4CFF9
:104BBC001F920F920FB60F9211240BB60F922F93D8
:104BCC003F934F935F936F937F938F939F93AF9389
:104BDC00BF93EF93FF938091500290915102A0915B
:104BEC005202B09153020196A11DB11D8093500247
:104BFC0090935102A0935202B093530280914F02B2
:104C0C008F7039F180914F02877001F180914F02C2
:104C1C000E949C3380914F028F5F80934F028031B2
:104C2C0011F410924F02FF91EF91BF91AF919F91B0
:104C3C008F917F916F915F914F913F912F910F9039
:104C4C000BBE0F900FBE0F901F9018950E9415333E
:084C5C00DDCF0E94E628D6CF4F
:104C64001F93CF93DF931F92CDB7DEB782E0898382
:104C740010911F01111F1127111FA9F480911E010A
:104C84000E94692F80931E0180911E018F3F59F16C
:104C940080911F01806880931F01812F0F90DF9105
:104CA400CF911F91089540911E0189E0489FA00172
:104CB400112428E061E0CE0101960E947731182F7B
:104CC400882359F380911E018F5F80931E01809188
:104CD4001F018F7780931F0110E0812F0F90DF91C8
:104CE400CF911F91089510921E0180911F018F771B
:104CF40080931F0111E0812F0F90DF91CF911F91BD
:024D0400089510
:104D06008F929F92AF92CF92DF92EF920F931F9363
:104D1600CF93C82F6901E42E6F3FA1F1062F20E142
:104D2600829F000D11248E2DB6010E945431C0E0E1
:104D360010E019C0C801820F931F4601AE2C820EE7
:104D4600931EA11C37FDAA944A2D9401F401542FF9
:104D56000E94F032FC01E85AFD4F6083CF5F8E2D32
:104D6600B6010E9454312C2F30E02817390710F372
:104D7600CF911F910F91EF90DF90CF90AF909F90C2
:104D86008F900895842FB9010E94543100E110E0FC
:104D9600081B190B1695079520E1C29F000D1124DB
:024DA600C6CF76
:104DA800EF92FF920F931F93CF93DF93CDB7DEB7A8
:104DB8000DB71EB7242F30E0D9011197EDB7FEB714
:104DC800E21BF30B0FB6F894FEBF0FBEEDBF2DB775
:104DD8003EB72F5F3F4F790161831A161B06A4F473
:104DE80060E070E050E020E030E06E0D7F1D280F9D
:104DF800391FF9012081FB0121835F5F252F30E0F6
:104E0800B9012A173B078CF3442369F0F701DC0149
:104E18004150842F90E001968E0D9F1D21912D9376
:104E2800E817F907D9F70FB6F8941EBF0FBE0DBFE4
:0E4E3800DF91CF911F910F91FF90EF900895A1
:104E4600CF92DF92EF920F931F93CF93DF93152F9D
:104E5600062FE901009721F4888199810097B9F11D
:104E6600DC011196FC013081332359F1C42ED12E79
:104E7600E02EF6015E2D0E94F032FFEFCF1ADF0A18
:104E8600EF0A662321F03613F4CFCD01E9CF7A2F4E
:104E96002B2FC42ED12EE02EF6015E2D0E94F0326D
:104EA600361303C011971C9210C05FEFC51AD50ABE
:104EB600E50A6111F1CF3D913111E9CF70E020E0B3
:104EC60004C070E020E080E090E078832983DF91E1
:0E4ED600CF911F910F91EF90DF90CF90089534
:104EE400CF92DF92EF92FF9269017A016115710509
:104EF40081059105F1F1A8EEB3E09B01AC010E949C
:104F04003C32623E24E072078105910568F122EE8D
:104F140034E040E050E00E94352E2093BD023093EF
:104F2400BE024093BF025093C0020E940D326093B0
:104F3400B9027093BA028093BB029093BC0281E0E1
:104F44008093B802C092B402D092B502E092B60245
:104F5400F092B70280916200816080936200FF90BA
:104F6400EF90DF90CF90089521E030E040E050E0F2
:0A4F7400D4CF20E030E0A901D0CF37
:104F7E000F931F93CF93861729F080E0CF911F9147
:104F8E000F910895C091200180912201815080934C
:104F9E002201042F10E00BC0CF5F809120012C2F37
:104FAE0030E0A801480F511D2417350731F06C2F42
:104FBE0081E00E9430318111EFCF80912001882352
:104FCE00B1F0809120018150909122018917A1F0BA
:104FDE006091220181E00E942D2D80914C0280680B
:104FEE0080934C0281E0CF911F910F9108958FEF26
:104FFE00909122018913ECCFC0932201609122017E
:08500E0081E00E942D2DE9CF85
:105016000E94A028809161008F7780936100809123
:1050260062008F7780936200D598DD988091610049
:105036008F7B80936100809162008F7B80936200FA
:10504600809161008D7F80936100809162008D7FE9
:1050560080936200DB98DA9ADC9A079B22C080E193
:10506600CD99806206998064DC98DC9A0799816004
:10507600CD9982600699846001998860DC98909148
:105086006100906890936100D59A90916100906458
:105096009093610090916100926090936100DA981C
:0650A600089580E0DDCF5B
:1050AC00DB982FB784FD38C0F894909162009F77FD
:1050BC00909362002FBF9FB785FD38C0F894DD98A0
:1050CC009FBF2FB786FD14C0F894909162009F7B10
:1050DC00909362002FBF9FB787FD14C0F894809106
:1050EC0062008D7F809362009FBFDC9ADC980895EC
:1050FC00F894909162009064909362002FBF9FB7D8
:10510C0087FFECCFF89480916200826080936200FC
:10511C009FBFDC9ADC980895F89490916200906897
:10512C00909362002FBF9FB785FFC8CFF894DD9A8C
:04513C009FBFC7CF7B
:10514000809161008F7780936100809162008F77FA
:1051500080936200D598DD98809161008F7B809369
:105160006100809162008F7B80936200809161007A
:105170008D7F80936100809162008D7F80936200BB
:10518000DB98DA9A8CE494E002C0009751F0DC9A44
:10519000019720B1DC98DC9ADC9821FDF6CF892BB1
:1051A00019F481E0809354028091610080688093BB
:1051B0006100D59A80916100806480936100809144
:0C51C0006100826080936100DA9808951D
:1051CC00BE9A80E00E94312FBE98C698BF9A81E0AB
:1051DC000E94312FBF98C79880916400886080939B
:1051EC00640082E00E94312F80916400877F80935D
:1051FC00640080916500877F8093650080916400D6
:10520C0080618093640083E00E94312F8091640060
:10521C008F7E80936400809165008F7E8093650003
:10522C0080919002882331F0809179028150809393
:10523C007902811108958AE080937902609190023D
:0C524C006F7360688AE892E00C94BD3239
:105258000AC0809199028150809399028091A60298
:105268008F5F8093A602809199028111F2CF80917D
:10527800A602833690F180919A0290919B02A091A8
:105288009C02B0919D020196A11DB11D80939A02C6
:1052980090939B02A0939C02B0939D028091A702D9
:1052A80080618093A70260919A0270919B0280911D
:1052B8009C0290919D022CE231E040E050E00E9477
:1052C800352E672B682B692B29F48091A7028068FB
:0C52D8008093A7021092A602089508958A
:1052E400CF938091A70285FBCC27C0F985FD08C028
:1052F4000E948833811114C0C0E08C2FCF9108958F
:1053040061E088EA92E00E945F1D8F3FA9F70E9446
:105314006C338091A7028F7D8093A702C1E0EDCF0B
:105324000E94853360919A0270919B0280919C0245
:1053340090919D024EE952E00E941F1910929E0224
:105344008EE992E00E9476304EE952E068E088EA05
:1053540092E00E9457338091A70280628093A70253
:065364008C2FCF9108958B
:10536A008091B1029091B202A091B3020097A10577
:10537A00C9F1813526E0920720E0A20799F10C963F
:10538A00A11DFC015A2F0E9493326115710551F13A
:10539A00FB010995882331F18091B1029091B20203
:1053AA00A091B3020996A11DFC015A2F0E9447320F
:1053BA0061157105810561F06135F6E07F07F0E05E
:1053CA008F0731F06093B1027093B2028093B302F7
:1053DA008091B00280648093B0028091B0028F7D88
:0653EA008093B00208955B
:1053F0008091B1029091B202A091B3020097A105F1
:1054000031F0813526E0920720E0A20771F106967F
:10541000A11DFC015A2F0E944732A82FCB010E96E6
:10542000A11DFC015A2F0E9447329B01482F2E5F7D
:105430003F4F4F4F6FEF80E00E9483268091B10273
:105440009091B202A091B3020E96A11DFC015A2FB9
:105450000E9447329B01482F60E081E00E94832632
:0C5460008091B00280688093B002089533
:10546C000F93821719F080E00F9108959A01462F3F
:10547C006091220181E00E948326209122014091BB
:10548C00200130E0802F90E0840F911D01972817A8
:10549C003907CCF4609122016F5F81E00E942D2DC1
:1054AC00809122018F5F8093220180914C02806851
:1054BC0080934C0280914C02887F836080934C02D5
:1054CC0081E00F91089580912001809322016091D9
:0A54DC00200181E00E942D2DE8CF91
:1054E600FC018181282F30E02A3031059CF590811E
:1054F6009093E2028D5F8093E3029181992399F064
:1055060090E0292F30E0DF01A20FB31F12968C9195
:10551600D901AE51BD4F12968C939F5F818198172A
:1055260080F38091E302E82FF0E0AF01415051098A
:10553600813089F0E2EEF2E0825090E08D519D4F8D
:1055460020E031912327E817F907D9F7FA01EE5140
:0A555600FD4F2083089520E0F9CFF7
:10556000E89409C097FB3EF49095809570956195FD
:105570007F4F8F4F9F4F9923A9F0F92F96E9BB27B3
:105580009395F695879577956795B795F111F8CF2F
:10559000FAF4BB0F11F460FF1BC06F5F7F4F8F4F9A
:1055A0009F4F16C0882311F096E911C0772321F090
:1055B0009EE8872F762F05C0662371F096E8862F28
:1055C00070E060E02AF09A95660F771F881FDAF77F
:0A55D000880F9695879597F90895C6
:1055DA000F931F93CF93DF93FB01248121FD03C017
:1055EA008FEF9FEF2CC022FF16C04781508525817F
:1055FA0036814217530744F4A081B1819D012F5F80
:10560A003F4F318320838C93278130852F5F3F4F13
:10561A003087278314C08B01EC01FB010184F285DA
:10562A00E02D0995892BE1F6D80117968D919C9169
:10563A001897019618969C938E931797CE01DF912F
:08564A00CF911F910F9108950B
:105652008091B00284FF12C08091B00285FD0FC01C
:105662000E94F81E8091B00287FD1FC08091B00297
:1056720087FD04C08091B00286FD09C008950E9492
:10568200B5298091B0028F778093B00208950E946D
:1056920019320E940F330E9409330E94F829809127
:1056A200B0028F7B8093B00208950E942C2288233F
:1056B200E9F20E9419328091B0028F778093B00292
:0256C200D5CF42
:1056C400CF93DF93109215011092140110921F01D1
:1056D4001092160110921E0110920B0110921701E4
:1056E4001092000180911F01806480931F014AE0A1
:1056F40061E071E088E191E00E94AD32CCE0D1E05C
:1057040081E090E0A0E0B0E08C839D83AE83BF8312
:105714000E940D32688379838A839B8380EC91E2B3
:105724000E944D338DEE91E1DF91CF910C94523371
:105734006F927F928F92CF92DF92EF92CF933B0141
:10574400882EC42FC7700E94A028DB988C2F880F46
:10575400880F880F805C0E94AB1B6301E82C360124
:105764008E2C88E0680E711C811CF6015E2D0E944F
:10577400F032C62F0E94A028DB9A8C2F0E94AB1B0C
:105784008FEFC81AD80AE80AC614D704E80469F7E0
:10579400CF91EF90DF90CF908F907F906F9008958E
:1057A40080E090E0FC01E658FD4F108201968031C4
:1057B4009105C1F7109290021092790248E061E9D4
:1057C40072E08AE892E00E94AD32BE98C698BF9813
:1057D400C79880916400877F8093640080916500FE
:1057E400877F80936500809164008F7E809364003E
:1057F400809165008F7E80936500BA98C29ABB98A9
:0C580400C39ABC98C49ABD98C59A089538
:10581000CF93861719F080E0CF910895C42F80911F
:1058200022018F5F809322016091220181E00E941A
:1058300030318823C1F0209122018091200130E095
:1058400090E08C0F911D2817390769F060912201B3
:1058500081E00E942D2D80914C02806880934C0243
:1058600081E0CF9108958091200180932201609181
:0A587000220181E00E942D2DEECFF1
:10587A000F931F93FC01448155816681778177FDDF
:10588A0020C080819181A281B381840F951FA61FB8
:10589A00B71F2FB7F894409150025091510260916E
:1058AA005202709153022FBF8C019D0104271527C4
:1058BA002627372737FD05C0481759076A077B0788
:1058CA0020F480E01F910F91089581E01F910F91BC
:0258DA0008952F
:1058DC00861711F080E008956091210170E0842F0B
:1058EC0090E0019768177907A4F01092210120939A
:1058FC00200180912001809322016091200181E0A0
:10590C000E942D2D80914C02806880934C0281E086
:10591C00089580912001480F40932001809121012E
:10592C008F5F8093210180912001803110F3DDCFB6
:10593C00DC0112962C91129712163CF51196EC91F3
:10594C00E7FD0FC0A22FB0E0AA0FBB1FA65CBE4F95
:10595C003C91332341F030913A02231721F084E03B
:10596C00089582E00895E11106C0FC01808188232E
:10597C0071F080E00895F0E0EE0FFF1FE65CFE4F43
:10598C0080818111F6CF85E0089581E00895089516
:10599C000F931F93CF93DF93CDB7DEB72F970FB62F
:1059AC00F894DEBF0FBECDBF0E891F8986E08D83B4
:1059BC001A8309838FEF9FE79F838E839E01255E59
:1059CC003F4F488D598D6A8DCE0101960E94610A18
:1059DC00E885F985E00FF11F10822F960FB6F89429
