:100000000C9437000C94550A0C94550A0C94550A1C
:100010000C94550A0C94D3080C94550A0C94550A68
:100020000C94550A0C94550A0C94550A0C947002C1
:100030000C94550A0C94550A0C941D060C94550A00
:100040000C94550A0C94550A0C94DE010C94550A34
:100050000C94550A0C94550A0C94550A0C94550AA4
:100060000C94550A0C94550A010001778000112464
:100070001FBECFEFD8E0DEBFCDBFE8E6F0E040E046
:1000800017C0B591A59135912591059107FD0CC03B
:1000900095918591EF01F92FE82F05900D92A21708
:1000A000B307D9F7FE0104C01D92A217B307E1F709
:1000B000ED36F40731F70E94F4030C945F00F894D6
:0200C000FFCF70
:1000C20000010204081020408001020408102040B0
:1000D2008001020408102040800102040810204020
:1000E2008001020408102040800102040810204010
:1000F2008001020408102040800102040810204000
:1001020080010204081020408001020408102040EF
:1001120080010204081020408001020408102040DF
:01012200805C
:1001230000000000000000000002020202020202BE
:100133000203030303030303000404040404040489
:1001430004000000000000000000000000000000A8
:10015300000000000000000000000000000000009C
:10016300000000000000000000000000000000008C
:10017300000000000000000000000000000000007C
:01018300007B
:1001840000000000250028002B00000000000000F3
:0A0194000000000000000000000061
:10019E0000000000240027002A00000000000000DC
:0A01AE000000000000000000000047
:1001B80000000000230026002900000000000000C5
:0A01C800000000000000000000002D
:1001D200CF93DF930E94260A882309F4EBC0809113
:1001E2001001811123C080E191E00E948E0987E015
:1001F20091E00E946F07882309F4DCC0809110010E
:100202008111D8C085E080931001C7E0D1E080E27F
:1002120093E0A0E0B0E08C839D83AE83BF830E9415
:10022200BB09688379838A839B83C4C08130E1F4EC
:1002320087E091E00E946F07882309F4BBC00E9407
:10024200AE09C7E0D1E080E293E0A0E0B0E08C83A9
:100252009D83AE83BF830E94BB09688379838A83AF
:100262009B8310921001A6C0853001F581E0809336
:100272001001E6E3F1E0808385E0818382831382CB
:10028200148215821682C7E0D1E088E290E0A0E0F5
:10029200B0E08C839D83AE83BF830E94BB096883D9
:1002A20079838A839B830E94480884C0873001F542
:1002B20081E080931001E6E3F1E0808382E08183B4
:1002C20087E0828380911B018383C7E0D1E088E2CB
:1002D20090E0A0E0B0E08C839D83AE83BF830E9458
:1002E200BB09688379838A839B830E94480862C022
:1002F200833091F5E6E3F1E081E0808396E091833B
:1003020093E09283A7E1B1E011969C9111979383B8
:1003120011969C911197948312969C9112979583B2
:1003220013969C911397968314969C91978380932E
:100332001001C7E0D1E088E290E0A0E0B0E08C8359
:100342009D83AE83BF830E94BB09688379838A83BE
:100352009B830E9448082EC0823061F580910F0174
:1003620085FF26C081E080931001E6E3F1E08083FF
:1003720082E08183828380910F0186FD03C0109207
:10038200390103C081E080933901C7E0D1E088E2FE
:1003920090E0A0E0B0E08C839D83AE83BF830E9497
:1003A200BB09688379838A839B830E94480802C0C1
:0A03B20010921001DF91CF91089521
:1003BC001F920F920FB60F9211242F933F938F938E
:1003CC009F93AF93BF93EF93FF93809174018B3006
:1003DC00D8F5E09174018091C600F0E0E55DFE4F28
:1003EC0080838091750185FF1AC0A0917401E09102
:1003FC007301B0E0A55DBE4FF0E0E05EFE4F9C9156
:10040C008081981771F180917601865A80937601DC
:10041C0010927301809175018F7D8093750180918D
:10042C0074018F5F809374018BE080938100109234
:10043C0080008AE590E090938900809388008091F9
:10044C006F00826080936F00FF91EF91BF91AF912D
:10045C009F918F913F912F910F900FBE0F901F90F6
:10046C0018952091730130E08091210190E0019763
:10047C00281739070CF1EBE2F1E086E391E01192D9
:10048C008E179F07E1F7E0E2F1E08BE291E0119229
:10049C008E179F07E1F7109273011092760110925C
:1004AC007401809175018F7780937501809175012E
:1004BC008F7D80937501B3CF809173018F5F809393
:1004CC007301E0917301F0E0E05EFE4F8081809358
:0404DC00C600A5CFE2
:1004E0001F920F920FB60F9211242F933F934F93A9
:1004F0005F936F937F938F939F93AF93BF93EF938C
:10050000FF931092810010928500109284008091D8
:100510006F008D7F80936F0080917501837021F54E
:1005200080917401813029F080917401833008F04A
:1005300056C0EBE2F1E086E391E011928E179F073F
:10054000E1F710927401FF91EF91BF91AF919F91EC
:100550008F917F916F915F914F913F912F910F906C
:100560000FBE0F901F901895809175018370823097
:10057000A9F0809175018370813029F71092740180
:100580008091C00085FFFCCF809120018093C60040
:1005900080917501806280937501D5CF809175013E
:1005A00087FFD1CF2091760180916C0190916D01F0
:1005B000820F911D2BE02093810010928000909378
:1005C00089008093880080916F00826080936F0023
:1005D000809175018C7F816080937501B4CF0E94FA
:1005E000B704882309F4A5CF8091750180618093B9
:0405F00075019FCF23
:1005F400809100018F3F09F477C080910001813020
:1006040009F45FC028F08230A1F08430B1F169C0F0
:1006140060E083E10E94F70760E084E10E94F7074D
:1006240061E085E10E94F707109201010E94340AFB
:1006340058C060E083E10E94F70761E084E10E9412
:10064400F70760E085E10E94F7070E943A0A8823D1
:1006540051F028EE33E040E050E064E670E080E0E2
:1006640090E00E9469068091010181113AC081E005
:10067400809301010E942E0A34C061E083E10E944C
:10068400F70760E084E10E94F70760E085E10E94DB
:10069400F7070E943A0A882351F024E630E040E04C
:1006A40050E062E370E080E090E00E94690680918F
:1006B4000101811116C081E0809301010E942E0A7C
:1006C40010C061E083E10E94F70761E084E10E94C9
:1006D400F70761E085E10E94F707109201010E948B
:0A06E400340A8FEF8093000108959F
:1006EE000F931F93CF93C82F862F142F0E9420088D
:1006FE002C2F30E0F901E45AFE4F811729F1808149
:10070E008823F1F0108281E08C0FC82FC06C80918D
:10071E00700189010F5F1F4F90E08017910709F458
:10072E0044C06C2F82E591E00E941E0A882319F1C5
:10073E008C2F90E098012F73332782179307C1F106
:10074E00CF911F910F91089580818F5F80838536A1
:10075E0030F58436C9F1813099F78C0FC82FCF73DD
:10076E008093700182E380936F01CC2349F389015A
:10077E000F5F1F4FD6CF8C2F90E098012F7333272A
:10078E0082179307E9F620E030E0A90168EC70E0EB
:10079E0080E090E0CF911F910F910C94690684E652
:1007AE008083CF911F910F91089510927001B9CF50
:1007BE0020E030E0A90164E670E080E090E0CF91A7
:1007CE001F910F910C946906CF5F8C2F8F73C82FDA
:0A07DE00C06489010F5F1F4FA4CF14
:1007E8000E944A0984B5826084BD85B5836085BD51
:1007F80087ED87BD16BC18BC0E94ED091092C50094
:1008080083E28093C4008091C10088608093C10016
:100818008091C10080618093C1008091C2008F7B6C
:100828008093C2008091C2008F778093C20080912C
:10083800C0008D7F8093C0008091C1008B7F809322
:10084800C1008091C20084608093C2008091C20080
:1008580082608093C2008091C200877F8093C2002B
:100868008091C2008F7D8093C2008091C2008F7EEC
:100878008093C2008091C10080688093C1000E946B
:1008880014050E9414050E94B2080E94F8090E94EB
:10089800400A80916E00826080936E0078940E9476
:0C08A800570A0E94C6050E945B09F9CFA8
:1008B400CF92DF92EF92FF920F931F93CF93DF9328
:1008C400962F082F10E020E0622FA8014D5D5E4FA7
:1008D4006F4FFA0144910E531F4F2F4FF8010491AB
:1008E400442329F1242F30E0F901EE0FFF1F9F016B
:1008F400FF0F440B842FB90162567E4F8F4FFB01CB
:10090400A591B4912C573E4F4F4F642FA901FA0182
:10091400C591D4918881933099F09230B9F0913097
:10092400E9F00095802388838C9108230C93DF9150
:10093400CF911F910F91FF90EF90DF90CF9008958A
:10094400802B88838C91082B0C93F1CF902F90955A
:10095400892388838C91082B0C93E9CF802B88837F
:0A0964008C91009508230C93E2CF5C
:10096E008091750187FF1CC02091760180916C01EA
:10097E0090916D01820F911D2BE0209381001092BA
:10098E008000909389008093880080916F00826030
:10099E0080936F00809175018C7F816080937501CB
:1009AE0050912B0180E8850F8230D8F08091740130
:1009BE008C30B8F440912C01E42FF0E0E65DFE4F50
:1009CE0060813FEF340F39F1ECE2F1E0252F90E03A
:1009DE0080E001C0219192278F5F3813FBCF6917FA
:1009EE0011F080E00895509340018DEF840F8093B5
:1009FE004101882371F0EDE2F1E0A2E4B1E0445050
:100A0E00842F90E0825D9E4F21912D93E817F90778
:0A0A1E00D9F781E0089590E0E2CFDF
:100A280081E080936D008091680084608093680005
:100A38001092750110927401109273011092760150
:100A480010927201E0E2F1E0119281E0EB32F807D6
:100A5800D9F7EBE2F1E086E391E011928E179F0758
:100A6800E1F72091720188E6289F90011124205F08
:100A78003B4F40E050E060E472E48FE090E00E9479
:100A880090082F5F3F4FC901A0E0B0E0880F991F81
:100A9800AA1FBB1F880F991FAA1FBB1F880F991F6A
:100AA800AA1FBB1F880F991FAA1FBB1F9C01AD015E
:100AB800220F331F441F551F220F331F441F551F7A
:100AC80060E070EC88EA90E00E94900830936D0135
:060AD80020936C0108955B
:100ADE00CF93DF93809142018238B1F40E946E0869
:100AEE00882391F0C7E0D1E080E293E0A0E0B0E08F
:100AFE008C839D83AE83BF830E94BB0968837983F9
:100B0E008A839B8381E038C0809142018D7F843837
:100B1E00C1F40E94AE098823A1F010921001C7E023
:100B2E00D1E080E293E0A0E0B0E08C839D83AE83C1
:100B3E00BF830E94BB09688379838A839B8381E08C
:100B4E001BC0809142018538B1F480910F0186FD62
:100B5E0003C010921B0103C081E080931B016091C2
:100B6E001B0188E090E00E94C8090E94AE09109215
:0E0B7E00100181E001C080E0DF91CF91089569
:100B8C0080917101882341F080917101813071F065
:100B9C0080917101823009F008958AE491E00E94FD
:100BAC006F078823C9F31092710108958AE491E0CC
:100BBC000E946F07882381F32091640130916501B5
:100BCC004091660150916701211531054105510590
:100BDC0081F0A8EEB3E00E94030A623E24E07207A3
:100BEC0081059105F8F022EE34E040E050E00E94DF
:100BFC00900820934E0130934F0140935001509335
:100C0C0051010E94BB0960934A0170934B01809380
:100C1C004C0190934D0182E08093710160E086E17C
:0E0C2C000C94F70721E030E040E050E0E2CF0A
:100C3A001F920F920FB60F9211242F933F934F9347
:100C4A005F936F937F938F939F93AF93BF93EF932A
:100C5A00FF938091580190915901A0915A01B09146
:100C6A005B010196A11DB11D809358019093590112
:100C7A00A0935A01B0935B0180916E018F7009F1C4
:100C8A0080916E018770D1F080916E018F5F8093A1
:100C9A006E01803111F410926E01FF91EF91BF91B4
:100CAA00AF919F918F917F916F915F914F913F91FA
:100CBA002F910F900FBE0F901F9018950E94590AFE
:080CCA00E3CF0E94CD07DCCF4F
:100CD200CF92DF92EF92FF9269017A01611571055D
:100CE20081059105E1F1A8EEB3E09B01AC010E9400
:100CF200030A623E24E072078105910558F122EE53
:100D020034E040E050E00E94900820934E0130937E
:100D12004F0140935001509351010E94BB096093CF
:100D22004A0170934B0180934C0190934D0181E0F5
:100D320080937101C0926401D0926501E0926601D4
:100D4200F092670161E086E1FF90EF90DF90CF9033
:100D52000C94F70721E030E040E050E0D6CF20E0ED
:060D620030E0A901D2CF30
:100D6800CF93DF93C0E0D0E0CE010E94E109FE01FD
:100D7800E95EFE4F80832196C430D105A9F78091A2
:100D8800170181111BC080911801811117C0809132
:100D98001901811113C080911A0181110FC0C0E09F
:100DA800D0E0CE0104960E94E109FE01E95EFE4F03
:100DB80080832196C930D105A1F702C00E94A107FE
:100DC80089E397E00E94450A8FE695E00E944A0A67
:100DD8001092100145E062E071E081E191E00E942B
:100DE8000E0A10920F010E947D09DF91CF9108959C
:100DF800FC018181282F30E02A3031059CF5908153
:100E0800909320018D5F809321019181992399F01E
:100E180090E0292F30E0DF01A20FB31F12968C91CA
:100E2800D901A05EBE4F12968C939F5F818198175F
:100E380080F380912101E82FF0E0AF014150510982
:100E4800813089F0E0E2F1E0825090E08F5D9E4FC2
:100E580020E031912327E817F907D9F7FA01E05E76
:0A0E6800FE4F2083089520E0F9CF2B
:100E7200CF93DF93C7E0D1E080E293E0A0E0B0E05F
:100E82008C839D83AE83BF830E94BB096883798371
:100E92008A839B83809142018230E1F4C0E4D1E0F5
:100EA2006E8188E090E00E94C8098E81A7E1B1E0DE
:100EB20014968C931497E6E3F1E081E0808383E05B
:100EC200818381E882838881838314968C918483D1
:0C0ED2000E94480881E0DF91CF91089554
:100EDE000F931F93FC01448155816681778177FDC5
:100EEE0021C080819181A281B381840F951FA61F9D
:100EFE00B71F2FB7F8944091580150915901609146
:100F0E005A0170915B012FBF78948C019D010427CB
:100F1E0015272627372737FD05C0481759076A07B3
:100F2E007B0720F480E01F910F91089581E01F91BF
:040F3E000F91089572
:100F4200CF93DF93C0E0D0E060E0CE010E94C809F9
:100F52002196C430D105C1F7E7E1F1E086E680834E
:100F620085E6818382E0828381E083831482158215
:100F7200168217821086C0E0D0E0FE01E95EFE4FC5
:100F82006081CE0104960E94C8092196C930D1051C
:080F9200A1F7DF91CF91089552
:100F9A0040E06CE180E00E94770340E06DE181E08F
:100FAA000E94770340E06EE182E00E94770340E00E
:100FBA006FE183E00E94770380917001882331F00A
:100FCA0080916F01815080936F01811108958AE0A9
:100FDA0080936F01609170016F73606882E591E0A0
:040FEA000C941E0A3B
:100FEE00262F90E0A0E0AC016A2F4D5D5E4F6F4F53
:100FFE00FA0134918E539F4FAF4FFC018491432FD2
:10100E0050E0FA01EE0FFF1FAF01FF0F660B4C57BA
:10101E005E4F6F4FFA01A591B491332331F09C913D
:10102E00213021F0809589238C930895892B8C9300
:02103E00089513
:1010400090E0A0E09C014A2F2D5D3E4F4F4F642F52
:10105000A901FA0144914423C9F08E539F4FAF4F29
:10106000FC01849150E0FA01EE0FFF1F9F01FF0F7A
:10107000440B28543E4F4F4F642FA901FA01A5910C
:10108000B4919C91982381E009F0089580E008953F
:1010900086E391E00E94FC062091760180916C012C
:1010A00090916D01820F911D2BE020938100109291
:1010B00080009093890080938800EFE6F0E08081C3
:1010C0008260808380917501806880937501809132
:0C10D00075018C7F81608093750108958C
:1010DC0090911A0180914301981739F083E00E9496
:1010EC006C091092100181E0089590911B01809180
:1010FC004401981739F087E00E946C091092100196
:10110C0081E008950E94AE09882319F01092100115
:04111C0081E00895D1
:10112000A1E21A2EAA1BBB1BFD010DC0AA1FBB1FEB
:10113000EE1FFF1FA217B307E407F50720F0A21B5D
:10114000B30BE40BF50B661F771F881F991F1A94CA
:1011500069F760957095809590959B01AC01BD01F4
:04116000CF0108951E
:10116400ECE5F1E0108211821282138244E060E621
:1011740071E082E591E00E940E0A109270011092D3
:101184006F0161E08CE10E945A0461E08DE10E94EC
:101194005A0461E08EE10E945A0461E08FE10C94EC
:0211A4005A04EB
:1011A6001F920F920FB60F9211248F93EF93FF9316
:1011B600109281001092850010928400EFE6F0E014
:1011C60080818D7F8083809175018C7F80937501EE
:1011D600FF91EF918F910F900FBE0F901F90189572
:1011E6008091750184FF10C08091420187FD0DC07A
:1011F600E0916A01F0916B010995882329F08091AD
:1012060075018F7E809375010895E0916801F091D4
:0A121600690109958111F3CF0895D5
:10122000FC018181A481B581A80FB11D8C91DB01E6
:101230008C9381818F5F818392819150928393817E
:0A124000891301C0118281E00895B6
:10124A00FC018081A481B581A80FB11D6C938081B6
:10125A008F5F808392819F5F92839381891301C0FC
:06126A00108281E00895EE
:10127000CF93DF931F92CDB7DEB7BE016F5F7F4F75
:1012800082E591E00E94160A811189810F90DF9119
:04129000CF9108955D
:1012940062E084E10E945A0463E085E10E945A04FA
:1012A40062E083E10E945A0461E08AE00E945A04E9
:0212B40008959B
:1012B600CF93CFB7F8940E94520A80930001CFBF14
:1012C60078940E94FA020E94D5090E94E900CF9103
:0212D600089579
:1012D800CF93CFB7F894682F81E191E00E941E0A5E
:1012E800982FCFBF789481E0911101C080E0CF9111
:0212F800089557
:1012FA008AE00E942008811106C080910F018F7B2D
:10130A0080930F01089580910F01806480930F01EB
:02131A00089534
:10131C00CF93CFB7F894BC0181E191E00E94160AFB
:10132C00982FCFBF789481E0911101C080E0CF91CC
:02133C00089512
:10133E00A29FB001B39FC001A39F700D811D112408
:0E134E00911DB29F700D811D1124911D0895F7
:10135C000E94260A882341F0E6E3F1E081E88083CD
:0A136C0011820E94480881E00895F4
:101376002FB7F894609158017091590180915A01E4
:0A13860090915B012FBF7894089549
:101390009C01F999FECF9FB7F89432BD21BD60BD85
:0A13A000FA9AF99A9FBF7894089515
:1013AA000E944F0A811107C00E943809843019F43B
:0813BA0082E00E946C09089515
:1013C2009C01F999FECF9FB7F89432BD21BDF89ADE
:0813D20080B59FBF78940895D7
:1013DA00109258011092590110925A0110925B0111
:0613EA0010926E0108954F
:1013F00062E086E10E945A0460E086E10E94F707FD
:0614000010927101089535
:101406000E949F09A59F900DB49F900DA49F800DEB
:06141600911D1124089550
:10141C00FC017583648343831282108211820895C8
:10142C00FC012281211102C080E008950C94100966
:10143C00FC013281238132130C94250980E008953C
:10144C0080917501881F8827881F91E0892708954E
:0C145C0080910F01806280930F010895C1
:0C14680080910F018F7D80930F0108958B
:0C1474009091710181E0911180E00895D9
:0A148000109200010E94B4060895C6
:0A148A0090936B0180936A010895AE
:0A14940090936901809368010895A8
:06149E0080911001089589
:0614A40080911B01089578
:0414AA000C9400009E
:0414AE000C94F3089F
:0214B20008959B
:00000001FF
