:1000000015C0EBC8F6CAF5CAF4CAF3CA44C6F1CAA9
:10001000F0CA45C7EECAD4C2ECCAEBCAEACAE9CAFA
:10002000E8CAE7CAE6CA006002E9800011241FBEE0
:10003000CFE5D4E0DEBFCDBFE6E2F0E040E017C0A0
:10004000B591A59135912591059107FD0CC095912C
:100050008591EF01F92FE82F05900D92A217B307B4
:10006000D9F7FE0104C01D92A217B307E1F7EB32E6
:0C007000F40731F742D900C0F894FFCF2C
:10007C007E306D79335B5F707F7B771F4E3D4F47D2
:10008C005E1710382F0E76151D6773051B0F3E1C5F
:05009C002B363B490872
:1000A200CF92DF92EF92FF92CF938091B00286308F
:1000B20009F4B1C0E8F0883009F46DC008F4FDC05D
:1000C200893009F0A1C039D910926A008091680084
:1000D2008093840281E08093850289E8809386027E
:1000E20081D981E0CF91FF90EF90DF90CF9008957A
:1000F200833009F49EC0853009F086C0BED98823BA
:1001020009F490C0CFB7F894E1EBF2E048EF5FEF6B
:100112002191C0907702D0907802E0907902F0901D
:100122007A0230E0C901042E02C0880F991F0A9496
:10013200E2F7092E000CAA0BBB0B8C299D29AE29D4
:10014200BF298093770290937802A0937902B093AB
:100152007A02485F5F4F48315105D1F62BDACFBFA3
:10016200809168008093840285E08093850282E812
:100172008093860280917602809387028091740236
:1001820080938802809175028093890210928A027C
:1001920029D981E0A7CF71D9882309F443C080917E
:1001A200AF028330E0F0C2E08091B10220916A0098
:1001B200EC2FF0E0E255FD4F30E1839FC0011124A6
:1001C20008966281820F911D48D980916A008F5FE3
:1001D20080936A00CF5F8091AF02C81728F38091A5
:1001E20068008093840283E08093850287E880938D
:1001F20086028091B1028093870280916A00809387
:100202008802F0D881E06ECF81E0CF91FF90EF902D
:10021200DF90CF90089510926100109273022DD951
:1002220081116EC080E0CF91FF90EF90DF90CF9070
:10023200089523D98823B1F3109273024091AF023B
:1002420050E041505109141615068CF480E090E0FC
:1002520020E0FC01E255FD4F3381FC01EC58FD4FDB
:1002620030832F5F822F90E08417950794F360917B
:10027200740285E090E0F1D86091750286E090E02A
:10028200ECD86091760287E090E0E7D88091680030
:100292008093840283E08093850284E880938602BF
:1002A20080917402809387028091B10280938802C8
:1002B20099D810926A0081E015CF81E080936100A5
:1002C200E091B102F0E0EE0FFF1FEE0FFF1FED58BD
:1002D200FF4F8081803809F497CF8091B2028083EA
:1002E2008091B30281838091B40282838091B502AE
:1002F200838381E0CF91FF90EF90DF90CF900895BC
:10030200809168008093840281E08093850288E86E
:0A0312008093860267D881E0E5CEF3
:10031C00809166008130F1F1F0F08230C9F48BE607
:10032C0090E09BD68823B1F08091650087FD97C043
:10033C00809165008F5F809365001092670081E06B
:10034C008093660080916500CED2809365000895FD
:10035C001092660008958BE690E07FD68823D1F347
:10036C0033D980E991E0A0E0B0E080936F009093E6
:10037C007000A0937100B0937200A3D860936B00CF
:10038C0070936C0080936D0090936E0081E080936D
:10039C00660008958BE690E060D68823D9F2E09150
:1003AC006500F0E0EE0FFF1FEE0FFF1FED58FF4F43
:1003BC00418161E082E690E032D743E061E082E681
:1003CC0090E0D6D7E0916500F0E0EE0FFF1FEE0F46
:1003DC00FF1FED58FF4F428163E082E690E01FD78C
:1003EC0047E064E082E690E0C3D7809167008330F9
:1003FC00E8F4809167008F5F8093670080E991E05B
:10040C00A0E0B0E080936F0090937000A093710017
:10041C00B093720056D860936B0070936C0080930D
:10042C006D0090936E0010926600089580E496E043
:10043C00A0E0B0E080936F0090937000A0937100E7
:10044C00B09372003ED860936B0070936C008093F5
:10045C006D0090936E0082E0809366000895109278
:04046C0065006BCFED
:10047000809166008130E1F1E0F08230B9F48BE6E2
:1004800090E0F1D58823A1F08091650087FD95C0AB
:10049000809165008F5F8093650081E080936600A6
:1004A0008091650026D280936500089510926600C1
:1004B00008958BE690E0D7D58823D1F38BD880E9D7
:1004C00091E0A0E0B0E080936F0090937000A09363
:1004D0007100B0937200FBD760936B0070936C0057
:1004E00080936D0090936E0081E080936600089584
:1004F0008BE690E0B8D58823D9F2E0916500F0E072
:10050000EE0FFF1FEE0FFF1FED58FF4F418161E01F
:1005100082E690E08AD643E061E082E690E02ED762
:10052000E0916500F0E0EE0FFF1FEE0FFF1FED58AA
:10053000FF4F428163E082E690E077D647E064E0D7
:1005400082E690E01BD78091670081111DC08091E9
:1005500067008F5F8093670080E991E0A0E0B0E0E2
:1005600080936F0090937000A0937100B09372001D
:10057000AED760936B0070936C0080936D00909386
:100580006E0010926600089580EA9FE0A0E0B0E05F
:1005900080936F0090937000A0937100B0937200ED
:1005A00096D760936B0070936C0080936D0090936E
:1005B0006E0082E0809366000895109265006DCF12
:1005C0001F920F920FB60F9211242F933F934F93C8
:1005D0005F936F937F938F939F93AF93BF93EF93AB
:1005E000FF938091AD028B3008F06BC0E091AD02BB
:1005F000F0E08CB1E157FD4F808380919A0285FF36
:1006000058C0E091AD02F0E0E157FD4F9081E091DC
:100610008E02F0E0E156FD4F8081981779F08091CD
:100620008302865A8093830210928E021092AD024A
:1006300080919A028F7D80939A023BC020918E0216
:1006400030E08091A00290E0019728173907A4F4C8
:1006500080918E028F5F80938E02E0918E02F0E097
:10066000E156FD4F80818CB924C0E82FF0E0E157BE
:10067000FD4F10828F5F01C080E08B30B0F380E0CF
:1006800006C0E82FF0E0E156FD4F10828F5F8B30FF
:10069000C0F310928E02109283021092AD028091EC
:1006A0009A028F7780939A0280919A028F7D80932D
:1006B0009A028091AD028F5F8093AD028AE590E04F
:1006C0005DD7FF91EF91BF91AF919F918F917F91F6
:1006D0006F915F914F913F912F910F900FBE0F90AF
:0406E0001F901895BA
:1006E4008091CB0284FD37C08091CB0286FF7CC011
:1006F4008091CB02882384F4E091B902F0E0209148
:10070400CA0280E890E002C0959587952A95E2F7A1
:10071400E453FD4F808310C02091B90230E08091F2
:10072400CA0290E0A0E084589F4FAF4FFC0184912F
:10073400F901E453FD4F8083C8D66093D4027093CB
:10074400D5028093D6029093D7028091CB02806128
:100754008093CB02089584ED92E083D48823A1F1A1
:100764008091CA028F5F8093CA028091CA028A3044
:1007740030F18091CB0288233CF4E091B902F0E09F
:10078400E453FD4F108207C0E091B902F0E0E45356
:10079400FD4F8EE780831092CA028091B9028F5F69
:1007A4008093B9029091B9028091C802981738F0E9
:1007B4008091D3028093B9028CEC92E0B4D68091FC
:1007C400CB028F7E8093CB028091CB0286FD0CC03E
:1007D4001092B9021092CA028091CB028F7E80934C
:0A07E400CB028CEC92E09FD6089542
:1007EE008091C902811121C08091C6029091C702E9
:1007FE002FB7F894AC014078552787FD03C0FC0154
:10080E00FF2704C0FC01EF77FF27F160452B19F499
:10081E00DC01BB2704C0DC01AF77BB27B1608C9134
:10082E009095892380832FBF26C0E091C902F0E006
:10083E003197EE0FFF1FE654FD4F808191812FB748
:10084E00F894AC014078552787FD03C0FC01FF27C3
:10085E0004C0FC01EF77FF27F160452B19F4DC0192
:10086E00BB2704C0DC01AF77BB27B1608C9190959C
:10087E00892380832FBFE091C902F0E0E453FD4F3E
:10088E008081ABD0E091C902F0E0EE0FFF1FE6547D
:10089E00FD4F808191812FB7F894AC014078552798
:1008AE0087FD03C0FC01FF2704C0FC01EF77FF2783
:1008BE00F160452B19F4DC01BB2704C0DC01AF77D6
:1008CE00BB27B1608C91892B80832FBF8091C90289
:1008DE008F5F8093C9028091C902873010F0109209
:0408EE00C90208959E
:1008F20087FD1CC0E82FF0E0EE0FFF1FEE0FFF1F79
:10090200ED58FF4F9081943009F46BC0982F0BC0C3
:10091200E92FF0E0EE0FFF1FEE0FFF1FED58FF4F24
:100922002081243091F19F5F97FFF2CF9091730065
:10093200943051F121E030E0922FF901EE0FFF1FC8
:10094200EE0FFF1FED58FF4F40814430F1F02F5F53
:100952003F4F2038310581F787FD1CC006C09081CA
:10096200913071F08F5F87FD15C0E82FF0E0EE0F38
:10097200FF1FEE0FFF1FED58FF4F9081923079F766
:1009820092E090936900089590E084E0809369007A
:10099200892F0895809173008230E9F0809173006D
:1009A2008130C9F021E030E0922FF901EE0FFF1FF4
:1009B200EE0FFF1FED58FF4F8081823069F080817A
:1009C200813051F02F5F3F4F2038310569F7109287
:1009D200690080E0089590E082E080936900892FA9
:0609E2000895982FD2CF0A
:1009E80088233CF02FB7F89495B39B7F95BB2FBF16
:1009F80006C02FB7F89495B3946095BB2FBF86FDBA
:100A080007C02FB7F89498B39D7F98BB2FBF06C037
:100A18002FB7F89498B3926098BB2FBF85FD07C095
:100A28002FB7F89498B39B7F98BB2FBF06C02FB7FA
:100A3800F89498B3946098BB2FBF84FD07C02FB774
:100A4800F89498B3977F98BB2FBF06C02FB7F89438
:100A580098B3986098BB2FBF83FD07C02FB7F89451
:100A680098B39F7E98BB2FBF06C02FB7F89498B352
:100A7800906198BB2FBF82FD07C02FB7F89498B339
:100A88009F7D98BB2FBF06C02FB7F89498B390628C
:100A980098BB2FBF81FD07C02FB7F89495B39E7FF1
:100AA80095BB2FBF06C02FB7F89495B3916095BB3F
:100AB8002FBF80FD07C09FB7F89485B38D7F85BB96
:100AC8009FBF08959FB7F89485B3826085BB9FBF89
:020AD80008957F
:100ADA00EAEBF2E082E390E49587848782E390E28E
:100AEA009387828782E390E19187808782E398E007
:100AFA009783868385E398E09583848385E390E1F1
:100B0A009383828385E390E29183808381B38064B7
:100B1A0081BB81B3806281BB81B3806181BB81B3B8
:100B2A00886081BB84B3886084BB84B3806184BBE2
:100B3A0084B3806284BB87B3826087BB87B38460D7
:100B4A0087BB87B3886087BB87B3806187BB87B35E
:100B5A00806287BB84B3816084BB84B3826084BBB8
:100B6A0084B3846084BB80E006C0E82FF0E0E453DD
:100B7A00FD4F10828F5F8730C0F31092C902109226
:100B8A00B8021092CA021092B9021092CB0287E000
:100B9A008093C8021092D30280E991E0A0E0B0E00D
:100BAA008093D8029093D902A093DA02B093DB0221
:020BBA0008959C
:100BBC00CF938091AD028130B1F480918302882370
:100BCC0009F461C02091830280919D0290919E0254
:100BDC00820F911DCDD480919A028C7F816080937D
:100BEC009A0280E050C08091AD02833008F442C07C
:100BFC0080918F02813878F49091AA02891759F06C
:100C0C0080E893E4B5D480919A028C7F82608093C3
:100C1C009A0280E038C080919A0288237CF420915B
:100C2C00830280919D0290919E02820F911DA0D40F
:100C3C0080919A028C7F816080939A0280918F02BE
:100C4C008138D1F08038D1F08091AD028C30C0F475
:100C5C0060919002E62FF0E0E257FD4FC0816150A9
:100C6C008FE892E021D4C8130DC08EEA92E09BD39A
:100C7C0081E009C080E007C080E005C080E003C0CF
:0A0C8C0080E001C080E0CF910895E0
:100C96001F920F920FB60F9211242F933F934F93EB
:100CA6005F936F937F938F939F93AF93BF93EF93CE
:100CB600FF936AD480919A028370A9F47CDF88231B
:100CC60029F080919A02806180939A0280E006C0A2
:100CD600E82FF0E0E157FD4F10828F5F8B30C0F3B5
:100CE6001092AD022AC080919A0283708230A1F4DC
:100CF60080919A0288230CF52091830280919D02AF
:100D060090919E02820F911D36D480919A028C7F1B
:100D1600816080939A0211C080919A02837081301B
:100D260061F41092AD025D9BFECF80919F028CB95B
:100D360080919A02806280939A02FF91EF91BF910F
:100D4600AF919F918F917F916F915F914F913F915D
:0C0D56002F910F900FBE0F901F9018956A
:100D6200CF93DF9381E0EBD381E08093680088E04A
:100D720090E092D38F3FD9F188E090E0A0E0B0E01C
:100D820080936F0090937000A0937100B0937200F3
:100D92009DD360936B0070936C0080936D00909371
:100DA2006E00B89A10926500109267001092660069
:100DB2001092690085E090E06FD38093740286E020
:100DC20090E06AD38093750287E090E065D38093C8
:100DD2007602B3D281E590E0F2D38BEC97E0F4D3C4
:100DE2001092730210926100DF91CF910895C8E0D2
:100DF200D0E060E0CE0131D32196C833D105C9F7E6
:020E0200BBCF64
:100E0400CF93DF938091E002882309F443C080915B
:100E1400E0028130A9F581EE92E023D18823D1F15B
:100E24002091DC023091DD024091DE025091DF021C
:100E3400211531054105510599F0A8EEB3E092D38F
:100E4400623E24E072078105910530F022EE34E021
:100E540040E050E02ED204C021E030E040E050E019
:100E6400C1EED2E02C833D834E835F832ED368830F
:100E740079838A839B8382E08093E002ADD30AC0A6
:100E84008091E002823031F481EE92E0EAD0811167
:0A0E94001092E002DF91CF91089563
:100E9E001F920F920FB60F9211242F933F934F93E1
:100EAE005F936F937F938F939F93AF93BF93EF93C4
:100EBE00FF9380917D0290917E02A0917F02B0916E
:100ECE0080020196A11DB11D80937D0290937E023A
:100EDE00A0937F02B093800280917C0281DC80918E
:100EEE007C02877009F45AD380917C028F5F8093C5
:100EFE007C02803111F410927C0288E282BFFF9155
:100F0E00EF91BF91AF919F918F917F916F915F9173
:100F1E004F913F912F910F900FBE0F901F901895EC
:100F2E00EF92FF920F931F93CF93DF93082F0295AB
:100F3E000F708F7021E030E0790102C0EE0CFF1CC3
:100F4E008A95E2F7C0E0D0E010E0085F1F4FC801BD
:100F5E008C0F9D1F9BD290E08E219F21892B61F4D7
:100F6E006096C033D10599F780E0DF91CF911F9144
:100F7E000F91FF90EF90089581E0DF91CF911F9137
:080F8E000F91FF90EF90089510
:100F96008091B002813811F081E008958091B1020C
:100FA600E82FF0E0EE0FFF1FEE0FFF1FED58FF4F8B
:100FB6009081903889F3109267001092660048E09D
:100FC60050E060E070E040936F00509370006093D3
:100FD6007100709372009091B20290839091B50265
:100FE60091839091B60292839091B70293837EDCAF
:080FF6008093650081E008957D
:100FFE0028E6829FC00111249C01205F3B4F40E0F8
:10100E0050E060E472E48FE090E04ED12F5F3F4FEE
:10101E00C901A0E0B0E0880F991FAA1FBB1F880F5F
:10102E00991FAA1FBB1F880F991FAA1FBB1F880FCE
:10103E00991FAA1FBB1F9C01AD01220F331F441F16
:10104E00551F220F331F441F551F60E070EC88EAB6
:08105E0090E02AD1C9010895B8
:10106600CF92DF92EF92FF920F931F93FC01C48001
:10107600D580E680F780FF20C4F080819181A2812F
:10108600B381C80ED91EEA1EFB1E1ED29701860129
:10109600062717272827392733234CF06C157D059B
:1010A6008E059F0530F480E005C080E003C080E037
:1010B60001C081E01F910F91FF90EF90DF90CF90DC
:0210C60008958B
:1010C800CF93DF93FC012181822F90E002960C9749
:1010D80024F58081AFE9B2E08C932D5F11962C93B3
:1010E80090E00CC0292F30E0DF01A20FB31F129649
:1010F8008C91D901AF55BD4F8C939F5F8181981713
:1011080088F36091A002C62FD0E0219761508FE943
:1011180092E0CCD1C156DD4F8883DF91CF910895FD
:1011280085B78D7F85BF85B7816085BF8BB78064A4
:101138008BBF10929A021092AD0210928E021092FA
:1011480083021092AA0280E006C0E82FF0E0E15680
:10115800FD4F10828F5F8B30C0F380E006C0E82F10
:10116800F0E0E157FD4F10828F5F8B30C0F3809124
:0E117800AA0241DF90939E0280939D0208958B
:101186000AC08091600081508093600080917B024C
:101196008F5F80937B02809160008111F2CF8091F6
:1011A6007B028336B0F08091770290917802A0910D
:1011B6007902B0917A020196A11DB11D8093770242
:1011C60090937802A0937902B0937A0210927B02F0
:0411D60008950895DB
:1011DA001F920F920FB60F9211242F933F934F93A2
:1011EA005F936F937F938F939F93AF93BF93EF9385
:1011FA00FF93C8D180919A028C7F80939A02FF91C3
:10120A00EF91BF91AF919F918F917F916F915F9174
:10121A004F913F912F910F900FBE0F901F901895ED
:10122A00FC0190E014C0DF01A90FB11D2DEC429F13
:10123A00212D1124269526952695522F550F352FA7
:10124A00330F330F350F431B4C93422F9F5F4423B9
:10125A0041F0961740F305C0DF01A90FB11D1C929A
:08126A009F5F9617C8F3089579
:1012720080919A0284FF1DC08091B00288236CF491
:10128200E091AB02F091AC020995882391F0809134
:101292009A028F7E80939A020895E0919B02F091C8
:1012A2009C020995882329F080919A028F7E80936F
:0412B2009A020895FF
:1012B600A1E21A2EAA1BBB1BFD010DC0AA1FBB1F54
:1012C600EE1FFF1FA217B307E407F50720F0A21BC6
:1012D600B30BE40BF50B661F771F881F991F1A9433
:1012E60069F760957095809590959B01AC01BD015D
:0412F600CF01089587
:1012FA007CD183B7836083BF88E282BF06D110BCEA
:10130A0083E289B98AB188618AB980B5866880BD65
:10131A008AB180688AB903DF02DF3BD1D9DB66D1A3
:10132A0089B7816089BF78945BD15CD166DD81D051
:02133A00FBCFE7
:10133C001F93CF93DF93C0E0D0E010E805C010827C
:10134C002196C038D10581F08C2FEBDDFE01EE0F1C
:10135C00FF1FEE0FFF1FED58FF4F8111F0CF1083D1
:10136C002196C038D10581F7DF91CF911F91089557
:10137C000F931F9350E012C0A62FB0E0FC01E50FB5
:10138C00F11D008110E020E004581F4F2F4FF80191
:10139C000491A453BD4F0C935F5F6F5F641760F3B0
:0613AC001F910F9108954E
:1013B200DC01EFE8F2E080818C9351815350119669
:1013C2005C93119790E00BC0292F30E0F901EF56A2
:1013D200FD4F4081FD01E20FF31F42839F5F95178E
:0413E20098F30895DF
:1013E60084E892E06EDE2091830280919D029091C6
:1013F6009E02820F911DBFD080919A0280688093D1
:101406009A0280919A028C7F816080939A02089555
:10141600809165006BDA8093650080916900843065
:1014260049F080916900823021F047E061E081E077
:061436008EC01BC870C748
:10143C0060D0882311F0E9DFA0CECED0482F63E036
:10144C0082E690E0ECDE47E061E082E690E090CF4F
:10145C009C01E199FECF9FB7F8943FBB2EBB6DBBAF
:10146C008CB384608CBB8CB382608CBB9FBF0895A3
:10147C0080919A0288233CF080919A02837082308A
:0E148C0021F480E0089580E0089581E0089545
:10149A009C01E199FECF9FB7F8943FBB2EBB8CB35A
:0A14AA0081608CBB8DB39FBF0895D5
:1014B400AC0190E080E006C0FA01E90FF11D208143
:0A14C40082279F5F9617C0F308957A
:1014CE002FB7F89460917D0270917E0280917F0219
:0814DE00909180022FBF0895D8
:1014E600A29FB001B39FC001A39F01D0B29F700D10
:0814F600811D1124911D0895D0
:1014FE0080916100882321F09091760281E0911114
:06150E00089580E008953D
:1015140010927D0210927E0210927F02109280023D
:0615240010927C02089504
:10152A009C0190E005C0F901E90FF11D10829F5F4F
:06153A009730C8F308958C
:101540008093AA028091AA025ADD90939E02809312
:041550009D0208955B
:1015540006C0E62FF0E0E453FD4F80836F5F64170D
:04156400C0F3089533
:10156800BEDFA59F900DB49F900DA49F800D911D87
:04157800112408959D
:10157C002BE02EBD1FBC9BBD8ABD89B7806189BF86
:02158C000895C0
:0E158E001EBC1DBC1CBC89B78F7E89BF089592
:0E159C0084B3806284BB1CD01092E0020895DC
:0C15AA00809160008F5F809360000895C6
:0A15B6001092600010927B0208956D
:0A15C00090939C0280939B02089513
:0A15CA009093AC028093AB020895E9
:0815D4008CEC92E0A8DF089501
:0815DC0085B38F7D85BB0895E6
:0615E4008091AA020895A7
:0415EA0043DE08953F
:0415EE007AD808950A
:0215F20006C52C
:0215F400089558
:0215F600B5CB73
:00000001FF
